{
  "contractName": "GuitarBrand",
  "abi": [
    {
      "inputs": [
        {
          "internalType": "string",
          "name": "brandName",
          "type": "string"
        },
        {
          "internalType": "string",
          "name": "brandSymbol",
          "type": "string"
        }
      ],
      "stateMutability": "nonpayable",
      "type": "constructor"
    },
    {
      "anonymous": false,
      "inputs": [
        {
          "indexed": true,
          "internalType": "address",
          "name": "owner",
          "type": "address"
        },
        {
          "indexed": true,
          "internalType": "address",
          "name": "approved",
          "type": "address"
        },
        {
          "indexed": true,
          "internalType": "uint256",
          "name": "tokenId",
          "type": "uint256"
        }
      ],
      "name": "Approval",
      "type": "event"
    },
    {
      "anonymous": false,
      "inputs": [
        {
          "indexed": true,
          "internalType": "address",
          "name": "owner",
          "type": "address"
        },
        {
          "indexed": true,
          "internalType": "address",
          "name": "operator",
          "type": "address"
        },
        {
          "indexed": false,
          "internalType": "bool",
          "name": "approved",
          "type": "bool"
        }
      ],
      "name": "ApprovalForAll",
      "type": "event"
    },
    {
      "anonymous": false,
      "inputs": [
        {
          "indexed": true,
          "internalType": "uint256",
          "name": "_serial",
          "type": "uint256"
        },
        {
          "indexed": true,
          "internalType": "address",
          "name": "previousOwner",
          "type": "address"
        },
        {
          "indexed": true,
          "internalType": "address",
          "name": "newOwner",
          "type": "address"
        },
        {
          "indexed": false,
          "internalType": "uint256",
          "name": "txTime",
          "type": "uint256"
        }
      ],
      "name": "ChangeGuitarOwnership",
      "type": "event"
    },
    {
      "anonymous": false,
      "inputs": [
        {
          "indexed": true,
          "internalType": "uint256",
          "name": "_serial",
          "type": "uint256"
        },
        {
          "indexed": true,
          "internalType": "uint256",
          "name": "_newPrice",
          "type": "uint256"
        },
        {
          "indexed": false,
          "internalType": "uint256",
          "name": "_previousPrice",
          "type": "uint256"
        }
      ],
      "name": "ChangeGuitarPrice",
      "type": "event"
    },
    {
      "anonymous": false,
      "inputs": [
        {
          "indexed": true,
          "internalType": "address",
          "name": "account",
          "type": "address"
        }
      ],
      "name": "ClosedFactory",
      "type": "event"
    },
    {
      "anonymous": false,
      "inputs": [
        {
          "indexed": true,
          "internalType": "address",
          "name": "account",
          "type": "address"
        }
      ],
      "name": "NewFactory",
      "type": "event"
    },
    {
      "anonymous": false,
      "inputs": [
        {
          "indexed": false,
          "internalType": "uint256",
          "name": "_serial",
          "type": "uint256"
        }
      ],
      "name": "NewGuitarMinted",
      "type": "event"
    },
    {
      "anonymous": false,
      "inputs": [
        {
          "indexed": true,
          "internalType": "address",
          "name": "previousOwner",
          "type": "address"
        },
        {
          "indexed": true,
          "internalType": "address",
          "name": "newOwner",
          "type": "address"
        }
      ],
      "name": "OwnershipTransferred",
      "type": "event"
    },
    {
      "anonymous": false,
      "inputs": [
        {
          "indexed": true,
          "internalType": "bytes32",
          "name": "role",
          "type": "bytes32"
        },
        {
          "indexed": true,
          "internalType": "bytes32",
          "name": "previousAdminRole",
          "type": "bytes32"
        },
        {
          "indexed": true,
          "internalType": "bytes32",
          "name": "newAdminRole",
          "type": "bytes32"
        }
      ],
      "name": "RoleAdminChanged",
      "type": "event"
    },
    {
      "anonymous": false,
      "inputs": [
        {
          "indexed": true,
          "internalType": "bytes32",
          "name": "role",
          "type": "bytes32"
        },
        {
          "indexed": true,
          "internalType": "address",
          "name": "account",
          "type": "address"
        },
        {
          "indexed": true,
          "internalType": "address",
          "name": "sender",
          "type": "address"
        }
      ],
      "name": "RoleGranted",
      "type": "event"
    },
    {
      "anonymous": false,
      "inputs": [
        {
          "indexed": true,
          "internalType": "bytes32",
          "name": "role",
          "type": "bytes32"
        },
        {
          "indexed": true,
          "internalType": "address",
          "name": "account",
          "type": "address"
        },
        {
          "indexed": true,
          "internalType": "address",
          "name": "sender",
          "type": "address"
        }
      ],
      "name": "RoleRevoked",
      "type": "event"
    },
    {
      "anonymous": false,
      "inputs": [
        {
          "indexed": true,
          "internalType": "uint256",
          "name": "_serial",
          "type": "uint256"
        },
        {
          "indexed": true,
          "internalType": "address",
          "name": "Owner",
          "type": "address"
        },
        {
          "indexed": false,
          "internalType": "bool",
          "name": "_selling",
          "type": "bool"
        }
      ],
      "name": "SaleStatus",
      "type": "event"
    },
    {
      "anonymous": false,
      "inputs": [
        {
          "indexed": true,
          "internalType": "address",
          "name": "from",
          "type": "address"
        },
        {
          "indexed": true,
          "internalType": "address",
          "name": "to",
          "type": "address"
        },
        {
          "indexed": true,
          "internalType": "uint256",
          "name": "tokenId",
          "type": "uint256"
        }
      ],
      "name": "Transfer",
      "type": "event"
    },
    {
      "anonymous": false,
      "inputs": [
        {
          "indexed": true,
          "internalType": "address",
          "name": "account",
          "type": "address"
        }
      ],
      "name": "subDealear",
      "type": "event"
    },
    {
      "anonymous": false,
      "inputs": [
        {
          "indexed": true,
          "internalType": "address",
          "name": "account",
          "type": "address"
        }
      ],
      "name": "unsubDealer",
      "type": "event"
    },
    {
      "inputs": [],
      "name": "DEALER",
      "outputs": [
        {
          "internalType": "bytes32",
          "name": "",
          "type": "bytes32"
        }
      ],
      "stateMutability": "view",
      "type": "function",
      "constant": true
    },
    {
      "inputs": [],
      "name": "DEFAULT_ADMIN_ROLE",
      "outputs": [
        {
          "internalType": "bytes32",
          "name": "",
          "type": "bytes32"
        }
      ],
      "stateMutability": "view",
      "type": "function",
      "constant": true
    },
    {
      "inputs": [],
      "name": "FACTORY",
      "outputs": [
        {
          "internalType": "bytes32",
          "name": "",
          "type": "bytes32"
        }
      ],
      "stateMutability": "view",
      "type": "function",
      "constant": true
    },
    {
      "inputs": [
        {
          "internalType": "address",
          "name": "to",
          "type": "address"
        },
        {
          "internalType": "uint256",
          "name": "tokenId",
          "type": "uint256"
        }
      ],
      "name": "approve",
      "outputs": [],
      "stateMutability": "nonpayable",
      "type": "function"
    },
    {
      "inputs": [
        {
          "internalType": "address",
          "name": "owner",
          "type": "address"
        }
      ],
      "name": "balanceOf",
      "outputs": [
        {
          "internalType": "uint256",
          "name": "",
          "type": "uint256"
        }
      ],
      "stateMutability": "view",
      "type": "function",
      "constant": true
    },
    {
      "inputs": [],
      "name": "baseURI",
      "outputs": [
        {
          "internalType": "string",
          "name": "",
          "type": "string"
        }
      ],
      "stateMutability": "view",
      "type": "function",
      "constant": true
    },
    {
      "inputs": [],
      "name": "brandOwner",
      "outputs": [
        {
          "internalType": "address",
          "name": "",
          "type": "address"
        }
      ],
      "stateMutability": "view",
      "type": "function",
      "constant": true
    },
    {
      "inputs": [
        {
          "internalType": "uint256",
          "name": "",
          "type": "uint256"
        }
      ],
      "name": "dealers",
      "outputs": [
        {
          "internalType": "address",
          "name": "",
          "type": "address"
        }
      ],
      "stateMutability": "view",
      "type": "function",
      "constant": true
    },
    {
      "inputs": [
        {
          "internalType": "uint256",
          "name": "",
          "type": "uint256"
        }
      ],
      "name": "factories",
      "outputs": [
        {
          "internalType": "address",
          "name": "",
          "type": "address"
        }
      ],
      "stateMutability": "view",
      "type": "function",
      "constant": true
    },
    {
      "inputs": [
        {
          "internalType": "uint256",
          "name": "tokenId",
          "type": "uint256"
        }
      ],
      "name": "getApproved",
      "outputs": [
        {
          "internalType": "address",
          "name": "",
          "type": "address"
        }
      ],
      "stateMutability": "view",
      "type": "function",
      "constant": true
    },
    {
      "inputs": [
        {
          "internalType": "bytes32",
          "name": "role",
          "type": "bytes32"
        }
      ],
      "name": "getRoleAdmin",
      "outputs": [
        {
          "internalType": "bytes32",
          "name": "",
          "type": "bytes32"
        }
      ],
      "stateMutability": "view",
      "type": "function",
      "constant": true
    },
    {
      "inputs": [
        {
          "internalType": "bytes32",
          "name": "role",
          "type": "bytes32"
        },
        {
          "internalType": "uint256",
          "name": "index",
          "type": "uint256"
        }
      ],
      "name": "getRoleMember",
      "outputs": [
        {
          "internalType": "address",
          "name": "",
          "type": "address"
        }
      ],
      "stateMutability": "view",
      "type": "function",
      "constant": true
    },
    {
      "inputs": [
        {
          "internalType": "bytes32",
          "name": "role",
          "type": "bytes32"
        }
      ],
      "name": "getRoleMemberCount",
      "outputs": [
        {
          "internalType": "uint256",
          "name": "",
          "type": "uint256"
        }
      ],
      "stateMutability": "view",
      "type": "function",
      "constant": true
    },
    {
      "inputs": [
        {
          "internalType": "uint256",
          "name": "",
          "type": "uint256"
        }
      ],
      "name": "guitars",
      "outputs": [
        {
          "internalType": "string",
          "name": "model",
          "type": "string"
        },
        {
          "internalType": "uint256",
          "name": "price",
          "type": "uint256"
        },
        {
          "internalType": "uint256",
          "name": "serial",
          "type": "uint256"
        },
        {
          "internalType": "address",
          "name": "factory",
          "type": "address"
        },
        {
          "internalType": "bool",
          "name": "isNew",
          "type": "bool"
        },
        {
          "internalType": "bool",
          "name": "forSale",
          "type": "bool"
        }
      ],
      "stateMutability": "view",
      "type": "function",
      "constant": true
    },
    {
      "inputs": [
        {
          "internalType": "bytes32",
          "name": "role",
          "type": "bytes32"
        },
        {
          "internalType": "address",
          "name": "account",
          "type": "address"
        }
      ],
      "name": "hasRole",
      "outputs": [
        {
          "internalType": "bool",
          "name": "",
          "type": "bool"
        }
      ],
      "stateMutability": "view",
      "type": "function",
      "constant": true
    },
    {
      "inputs": [
        {
          "internalType": "address",
          "name": "owner",
          "type": "address"
        },
        {
          "internalType": "address",
          "name": "operator",
          "type": "address"
        }
      ],
      "name": "isApprovedForAll",
      "outputs": [
        {
          "internalType": "bool",
          "name": "",
          "type": "bool"
        }
      ],
      "stateMutability": "view",
      "type": "function",
      "constant": true
    },
    {
      "inputs": [],
      "name": "name",
      "outputs": [
        {
          "internalType": "string",
          "name": "",
          "type": "string"
        }
      ],
      "stateMutability": "view",
      "type": "function",
      "constant": true
    },
    {
      "inputs": [],
      "name": "owner",
      "outputs": [
        {
          "internalType": "address",
          "name": "",
          "type": "address"
        }
      ],
      "stateMutability": "view",
      "type": "function",
      "constant": true
    },
    {
      "inputs": [
        {
          "internalType": "uint256",
          "name": "tokenId",
          "type": "uint256"
        }
      ],
      "name": "ownerOf",
      "outputs": [
        {
          "internalType": "address",
          "name": "",
          "type": "address"
        }
      ],
      "stateMutability": "view",
      "type": "function",
      "constant": true
    },
    {
      "inputs": [],
      "name": "renounceOwnership",
      "outputs": [],
      "stateMutability": "nonpayable",
      "type": "function"
    },
    {
      "inputs": [
        {
          "internalType": "bytes32",
          "name": "role",
          "type": "bytes32"
        },
        {
          "internalType": "address",
          "name": "account",
          "type": "address"
        }
      ],
      "name": "renounceRole",
      "outputs": [],
      "stateMutability": "nonpayable",
      "type": "function"
    },
    {
      "inputs": [
        {
          "internalType": "address",
          "name": "from",
          "type": "address"
        },
        {
          "internalType": "address",
          "name": "to",
          "type": "address"
        },
        {
          "internalType": "uint256",
          "name": "tokenId",
          "type": "uint256"
        }
      ],
      "name": "safeTransferFrom",
      "outputs": [],
      "stateMutability": "nonpayable",
      "type": "function"
    },
    {
      "inputs": [
        {
          "internalType": "address",
          "name": "from",
          "type": "address"
        },
        {
          "internalType": "address",
          "name": "to",
          "type": "address"
        },
        {
          "internalType": "uint256",
          "name": "tokenId",
          "type": "uint256"
        },
        {
          "internalType": "bytes",
          "name": "_data",
          "type": "bytes"
        }
      ],
      "name": "safeTransferFrom",
      "outputs": [],
      "stateMutability": "nonpayable",
      "type": "function"
    },
    {
      "inputs": [
        {
          "internalType": "address",
          "name": "operator",
          "type": "address"
        },
        {
          "internalType": "bool",
          "name": "approved",
          "type": "bool"
        }
      ],
      "name": "setApprovalForAll",
      "outputs": [],
      "stateMutability": "nonpayable",
      "type": "function"
    },
    {
      "inputs": [
        {
          "internalType": "bytes4",
          "name": "interfaceId",
          "type": "bytes4"
        }
      ],
      "name": "supportsInterface",
      "outputs": [
        {
          "internalType": "bool",
          "name": "",
          "type": "bool"
        }
      ],
      "stateMutability": "view",
      "type": "function",
      "constant": true
    },
    {
      "inputs": [],
      "name": "symbol",
      "outputs": [
        {
          "internalType": "string",
          "name": "",
          "type": "string"
        }
      ],
      "stateMutability": "view",
      "type": "function",
      "constant": true
    },
    {
      "inputs": [
        {
          "internalType": "uint256",
          "name": "index",
          "type": "uint256"
        }
      ],
      "name": "tokenByIndex",
      "outputs": [
        {
          "internalType": "uint256",
          "name": "",
          "type": "uint256"
        }
      ],
      "stateMutability": "view",
      "type": "function",
      "constant": true
    },
    {
      "inputs": [
        {
          "internalType": "address",
          "name": "owner",
          "type": "address"
        },
        {
          "internalType": "uint256",
          "name": "index",
          "type": "uint256"
        }
      ],
      "name": "tokenOfOwnerByIndex",
      "outputs": [
        {
          "internalType": "uint256",
          "name": "",
          "type": "uint256"
        }
      ],
      "stateMutability": "view",
      "type": "function",
      "constant": true
    },
    {
      "inputs": [
        {
          "internalType": "uint256",
          "name": "tokenId",
          "type": "uint256"
        }
      ],
      "name": "tokenURI",
      "outputs": [
        {
          "internalType": "string",
          "name": "",
          "type": "string"
        }
      ],
      "stateMutability": "view",
      "type": "function",
      "constant": true
    },
    {
      "inputs": [],
      "name": "totalSupply",
      "outputs": [
        {
          "internalType": "uint256",
          "name": "",
          "type": "uint256"
        }
      ],
      "stateMutability": "view",
      "type": "function",
      "constant": true
    },
    {
      "inputs": [
        {
          "internalType": "address",
          "name": "from",
          "type": "address"
        },
        {
          "internalType": "address",
          "name": "to",
          "type": "address"
        },
        {
          "internalType": "uint256",
          "name": "tokenId",
          "type": "uint256"
        }
      ],
      "name": "transferFrom",
      "outputs": [],
      "stateMutability": "nonpayable",
      "type": "function"
    },
    {
      "inputs": [
        {
          "internalType": "address",
          "name": "newOwner",
          "type": "address"
        }
      ],
      "name": "transferOwnership",
      "outputs": [],
      "stateMutability": "nonpayable",
      "type": "function"
    },
    {
      "inputs": [
        {
          "internalType": "bytes32",
          "name": "role",
          "type": "bytes32"
        },
        {
          "internalType": "address",
          "name": "account",
          "type": "address"
        }
      ],
      "name": "grantRole",
      "outputs": [],
      "stateMutability": "nonpayable",
      "type": "function"
    },
    {
      "inputs": [
        {
          "internalType": "bytes32",
          "name": "role",
          "type": "bytes32"
        },
        {
          "internalType": "address",
          "name": "account",
          "type": "address"
        }
      ],
      "name": "revokeRole",
      "outputs": [],
      "stateMutability": "nonpayable",
      "type": "function"
    },
    {
      "inputs": [
        {
          "internalType": "uint256",
          "name": "_serial",
          "type": "uint256"
        }
      ],
      "name": "guitarData",
      "outputs": [
        {
          "internalType": "string",
          "name": "",
          "type": "string"
        },
        {
          "internalType": "uint256",
          "name": "",
          "type": "uint256"
        },
        {
          "internalType": "uint256",
          "name": "",
          "type": "uint256"
        },
        {
          "internalType": "address",
          "name": "",
          "type": "address"
        },
        {
          "internalType": "bool",
          "name": "",
          "type": "bool"
        },
        {
          "internalType": "bool",
          "name": "",
          "type": "bool"
        }
      ],
      "stateMutability": "view",
      "type": "function",
      "constant": true
    },
    {
      "inputs": [
        {
          "internalType": "string",
          "name": "_model",
          "type": "string"
        },
        {
          "internalType": "uint256",
          "name": "_price",
          "type": "uint256"
        }
      ],
      "name": "mintGuitar",
      "outputs": [],
      "stateMutability": "nonpayable",
      "type": "function"
    },
    {
      "inputs": [
        {
          "internalType": "uint256",
          "name": "_serial",
          "type": "uint256"
        },
        {
          "internalType": "uint256",
          "name": "_newPrice",
          "type": "uint256"
        }
      ],
      "name": "changePrice",
      "outputs": [],
      "stateMutability": "nonpayable",
      "type": "function"
    },
    {
      "inputs": [
        {
          "internalType": "uint256",
          "name": "_serial",
          "type": "uint256"
        }
      ],
      "name": "changeSaleStatus",
      "outputs": [],
      "stateMutability": "nonpayable",
      "type": "function"
    },
    {
      "inputs": [],
      "name": "theseAreForSale",
      "outputs": [
        {
          "internalType": "bool[]",
          "name": "",
          "type": "bool[]"
        }
      ],
      "stateMutability": "view",
      "type": "function",
      "constant": true
    },
    {
      "inputs": [
        {
          "internalType": "uint256",
          "name": "_serial",
          "type": "uint256"
        }
      ],
      "name": "buyGuitar",
      "outputs": [],
      "stateMutability": "payable",
      "type": "function",
      "payable": true
    }
  ],
  "bytecode": "0x60806040523480156200001157600080fd5b50604051620043cf380380620043cf833981810160405260408110156200003757600080fd5b81019080805160405193929190846401000000008211156200005857600080fd5b9083019060208201858111156200006e57600080fd5b82516401000000008111828201881017156200008957600080fd5b82525081516020918201929091019080838360005b83811015620000b85781810151838201526020016200009e565b50505050905090810190601f168015620000e65780820380516001836020036101000a031916815260200191505b50604052602001805160405193929190846401000000008211156200010a57600080fd5b9083019060208201858111156200012057600080fd5b82516401000000008111828201881017156200013b57600080fd5b82525081516020918201929091019080838360005b838110156200016a57818101518382015260200162000150565b50505050905090810190601f168015620001985780820380516001836020036101000a031916815260200191505b5060405250505081816000620001bc62000422640100000000026401000000009004565b60008054600160a060020a031916600160a060020a0383169081178255604051929350917f8be0079c531659141344cd1fd0a4f28419497f9722a3daafe3b4186f6b6457e0908290a3506200023a7f01ffc9a70000000000000000000000000000000000000000000000000000000064010000000062000427810204565b81516200024f9060089060208501906200068e565b508051620002659060099060208401906200068e565b506200029a7f80ac58cd0000000000000000000000000000000000000000000000000000000064010000000062000427810204565b620002ce7f5b5e139f0000000000000000000000000000000000000000000000000000000064010000000062000427810204565b620003027f780e9d630000000000000000000000000000000000000000000000000000000064010000000062000427810204565b50506001600c556200031c640100000000620004f6810204565b600d8054600160a060020a031916600160a060020a03928316179081905562000352916000911664010000000062000505810204565b604080517f464143544f52590000000000000000000000000000000000000000000000000081529051908190036007019020600d54620003a59190600160a060020a031664010000000062000505810204565b604080517f4445414c45520000000000000000000000000000000000000000000000000000815281519081900360060181207f464143544f525900000000000000000000000000000000000000000000000000825291519081900360070190206200041a91906401000000006200051e810204565b505062000730565b335b90565b7fffffffff000000000000000000000000000000000000000000000000000000008082161415620004b957604080517f08c379a000000000000000000000000000000000000000000000000000000000815260206004820152601c60248201527f4552433136353a20696e76616c696420696e7465726661636520696400000000604482015290519081900360640190fd5b7fffffffff00000000000000000000000000000000000000000000000000000000166000908152600260205260409020805460ff19166001179055565b600054600160a060020a031690565b6200051a828264010000000062000570810204565b5050565b600082815260016020526040808220600201549051839285917fbd79b86ffe0ab8e8776151514217cd7cacd52c909f66475c3af44e129f0b00ff9190a460009182526001602052604090912060020155565b600082815260016020526040902062000598908264010000000062003564620005f582021704565b156200051a57620005b164010000000062000422810204565b600160a060020a031681600160a060020a0316837f2f8788117e7eff1d82e926ec794901d17c78024a50270940304540a733656f0d60405160405180910390a45050565b60006200061583600160a060020a0384166401000000006200061e810204565b90505b92915050565b600062000635838364010000000062000676810204565b6200066d5750815460018181018455600084815260208082209093018490558454848252828601909352604090209190915562000618565b50600062000618565b60009081526001919091016020526040902054151590565b828054600181600116156101000203166002900490600052602060002090601f016020900481019282601f10620006d157805160ff191683800117855562000701565b8280016001018555821562000701579182015b8281111562000701578251825591602001919060010190620006e4565b506200070f92915062000713565b5090565b6200042491905b808211156200070f57600081556001016200071a565b613c8f80620007406000396000f3fe608060405260043610610258576000357c0100000000000000000000000000000000000000000000000000000000900480636c0360eb1161014b578063b3de019c116100c8578063d547741f1161008c578063d547741f14610a43578063e7c4a28c14610a7c578063e7f41cf014610b31578063e985e9c514610b5b578063f2fde38b14610b9657610258565b8063b3de019c146108c2578063b88d4fde146108f2578063c5e92653146109c5578063c87b56dd146109ef578063ca15c87314610a1957610258565b80639010d07c1161010f5780639010d07c146107f457806391d148541461082457806395d89b411461085d578063a217fddf14610872578063a22cb4651461088757610258565b80636c0360eb1461071d57806370a0823114610732578063715018a6146107655780637f45e6191461077a5780638da5cb5b146107df57610258565b80632f2ff15d116101d957806342842e0e1161019d57806342842e0e146106325780634710ca86146106755780634f6ccce71461069f5780636352211e146106c9578063672383c4146106f357610258565b80632f2ff15d1461055d5780632f745c591461059657806336568abe146105cf5780633ec6952a146106085780634056845a1461061d57610258565b806318160ddd1161022057806318160ddd146103e25780631c03cda61461040957806323b872dd146104db578063248a9ca31461051e5780632dd310001461054857610258565b806301ffc9a71461025d57806306fdde03146102ba57806307da6d8114610344578063081812fc14610363578063095ea7b3146103a9575b600080fd5b34801561026957600080fd5b506102a66004803603602081101561028057600080fd5b50357bffffffffffffffffffffffffffffffffffffffffffffffffffffffff1916610bc9565b604080519115158252519081900360200190f35b3480156102c657600080fd5b506102cf610c01565b6040805160208082528351818301528351919283929083019185019080838360005b838110156103095781810151838201526020016102f1565b50505050905090810190601f1680156103365780820380516001836020036101000a031916815260200191505b509250505060405180910390f35b6103616004803603602081101561035a57600080fd5b5035610c98565b005b34801561036f57600080fd5b5061038d6004803603602081101561038657600080fd5b50356111bf565b60408051600160a060020a039092168252519081900360200190f35b3480156103b557600080fd5b50610361600480360360408110156103cc57600080fd5b50600160a060020a038135169060200135611224565b3480156103ee57600080fd5b506103f7611305565b60408051918252519081900360200190f35b34801561041557600080fd5b506104336004803603602081101561042c57600080fd5b5035611316565b604080516020808201889052918101869052600160a060020a0385166060820152831515608082015282151560a082015260c080825288519082015287519091829160e08301918a019080838360005b8381101561049b578181015183820152602001610483565b50505050905090810190601f1680156104c85780820380516001836020036101000a031916815260200191505b5097505050505050505060405180910390f35b3480156104e757600080fd5b50610361600480360360608110156104fe57600080fd5b50600160a060020a0381358116916020810135909116906040013561141c565b34801561052a57600080fd5b506103f76004803603602081101561054157600080fd5b5035611476565b34801561055457600080fd5b506103f761148b565b34801561056957600080fd5b506103616004803603604081101561058057600080fd5b5080359060200135600160a060020a03166114ae565b3480156105a257600080fd5b506103f7600480360360408110156105b957600080fd5b50600160a060020a038135169060200135611574565b3480156105db57600080fd5b50610361600480360360408110156105f257600080fd5b5080359060200135600160a060020a03166115a5565b34801561061457600080fd5b5061038d611609565b34801561062957600080fd5b506103f7611618565b34801561063e57600080fd5b506103616004803603606081101561065557600080fd5b50600160a060020a0381358116916020810135909116906040013561163b565b34801561068157600080fd5b506103616004803603602081101561069857600080fd5b5035611656565b3480156106ab57600080fd5b506103f7600480360360208110156106c257600080fd5b5035611814565b3480156106d557600080fd5b5061038d600480360360208110156106ec57600080fd5b5035611830565b3480156106ff57600080fd5b5061038d6004803603602081101561071657600080fd5b503561185e565b34801561072957600080fd5b506102cf611885565b34801561073e57600080fd5b506103f76004803603602081101561075557600080fd5b5035600160a060020a03166118e6565b34801561077157600080fd5b50610361611951565b34801561078657600080fd5b5061078f611a15565b60408051602080825283518183015283519192839290830191858101910280838360005b838110156107cb5781810151838201526020016107b3565b505050509050019250505060405180910390f35b3480156107eb57600080fd5b5061038d611ab4565b34801561080057600080fd5b5061038d6004803603604081101561081757600080fd5b5080359060200135611ac3565b34801561083057600080fd5b506102a66004803603604081101561084757600080fd5b5080359060200135600160a060020a0316611ae1565b34801561086957600080fd5b506102cf611aff565b34801561087e57600080fd5b506103f7611b60565b34801561089357600080fd5b50610361600480360360408110156108aa57600080fd5b50600160a060020a0381351690602001351515611b65565b3480156108ce57600080fd5b50610361600480360360408110156108e557600080fd5b5080359060200135611c6d565b3480156108fe57600080fd5b506103616004803603608081101561091557600080fd5b600160a060020a0382358116926020810135909116916040820135919081019060808101606082013564010000000081111561095057600080fd5b82018360208201111561096257600080fd5b8035906020019184600183028401116401000000008311171561098457600080fd5b91908080601f016020809104026020016040519081016040528093929190818152602001838380828437600092019190915250929550611e7a945050505050565b3480156109d157600080fd5b50610433600480360360208110156109e857600080fd5b5035611edb565b3480156109fb57600080fd5b506102cf60048036036020811015610a1257600080fd5b50356120e1565b348015610a2557600080fd5b506103f760048036036020811015610a3c57600080fd5b503561238b565b348015610a4f57600080fd5b5061036160048036036040811015610a6657600080fd5b5080359060200135600160a060020a03166123a2565b348015610a8857600080fd5b5061036160048036036040811015610a9f57600080fd5b810190602081018135640100000000811115610aba57600080fd5b820183602082011115610acc57600080fd5b80359060200191846001830284011164010000000083111715610aee57600080fd5b91908080601f0160208091040260200160405190810160405280939291908181526020018383808284376000920191909152509295505091359250612467915050565b348015610b3d57600080fd5b5061038d60048036036020811015610b5457600080fd5b50356126df565b348015610b6757600080fd5b506102a660048036036040811015610b7e57600080fd5b50600160a060020a03813581169160200135166126ec565b348015610ba257600080fd5b5061036160048036036020811015610bb957600080fd5b5035600160a060020a031661271a565b7bffffffffffffffffffffffffffffffffffffffffffffffffffffffff19811660009081526002602052604090205460ff165b919050565b60088054604080516020601f6002600019610100600188161502019095169490940493840181900481028201810190925282815260609390929091830182828015610c8d5780601f10610c6257610100808354040283529160200191610c8d565b820191906000526020600020905b815481529060010190602001808311610c7057829003601f168201915b505050505090505b90565b80600081118015610cb05750610cac611305565b8111155b610cf2576040805160e560020a62461bcd02815260206004820152601660248201526000805160206139a6833981519152604482015290519081900360640190fd5b81600081118015610d0a5750610d06611305565b8111155b610d4c576040805160e560020a62461bcd02815260206004820152601660248201526000805160206139a6833981519152604482015290519081900360640190fd5b60106001820381548110610d5c57fe5b906000526020600020906004020160030160159054906101000a900460ff16610dcf576040805160e560020a62461bcd02815260206004820152601c60248201527f4e6f7420666f722073616c6520696e2074686973206d6f6d656e742100000000604482015290519081900360640190fd5b6002600c541415610e2a576040805160e560020a62461bcd02815260206004820152601f60248201527f5265656e7472616e637947756172643a207265656e7472616e742063616c6c00604482015290519081900360640190fd5b6002600c556010805484908110610e3d57fe5b906000526020600020906004020160010154341015610e905760405160e560020a62461bcd02815260040180806020018281038252602381526020018061392b6023913960400191505060405180910390fd5b60408051600080516020613a6683398151915281529051908190036007019020610eba9033611ae1565b15610f0f576040805160e560020a62461bcd02815260206004820152601f60248201527f466163746f72696573206d616b652c207468657920646f206e6f742062757900604482015290519081900360640190fd5b6000610f1a84611830565b9050600160a060020a038116331415610f675760405160e560020a62461bcd028152600401808060200182810382526022815260200180613b336022913960400191505060405180910390fd5b60408051600080516020613a6683398151915281529051908190036007019020600090610f949033611ae1565b80610fc45750604080516000805160206139ea83398151915281529051908190036006019020610fc49033611ae1565b610fcc575060015b60408051600080516020613a6683398151915281529051908190036007019020600090610ff99033611ae1565b15801561102b5750604080516000805160206139ea8339815191528152905190819003600601902061102b9033611ae1565b9050600061105c6040518080600080516020613a668339815191528152506007019050604051809103902085611ae1565b15801561108e5750604080516000805160206139ea8339815191528152905190819003600601902061108e9085611ae1565b905081801561109a5750805b156110ef576040805160e560020a62461bcd02815260206004820181905260248201527f4465616c6572732063616e206e6f7420747261646520616d6f6e67207468656d604482015290519081900360640190fd5b604051600160a060020a038516903480156108fc02916000818181858888f19350505050158015611124573d6000803e3d6000fd5b50611130843389612837565b821561116e5760006010888154811061114557fe5b906000526020600020906004020160030160146101000a81548160ff0219169083151502179055505b6040805142815290513391600160a060020a038716918a917fbacfd126cee076bd28cd01fc19658d23a599204832371c52e7478669373bdc20919081900360200190a450506001600c555050505050565b60006111ca8261299b565b6112085760405160e560020a62461bcd02815260040180806020018281038252602c815260200180613b55602c913960400191505060405180910390fd5b50600090815260066020526040902054600160a060020a031690565b600061122f82611830565b905080600160a060020a031683600160a060020a031614156112855760405160e560020a62461bcd028152600401808060200182810382526021815260200180613bd96021913960400191505060405180910390fd5b80600160a060020a03166112976129ae565b600160a060020a031614806112b857506112b8816112b36129ae565b6126ec565b6112f65760405160e560020a62461bcd028152600401808060200182810382526038815260200180613a866038913960400191505060405180910390fd5b61130083836129b2565b505050565b60006113116004612a2d565b905090565b6010818154811061132357fe5b60009182526020918290206004919091020180546040805160026001841615610100026000190190931692909204601f8101859004850283018501909152808252919350918391908301828280156113bc5780601f10611391576101008083540402835291602001916113bc565b820191906000526020600020905b81548152906001019060200180831161139f57829003601f168201915b5050506001840154600285015460039095015493949093909250600160a060020a038116915060ff740100000000000000000000000000000000000000008204811691750100000000000000000000000000000000000000000090041686565b61142d6114276129ae565b82612a38565b61146b5760405160e560020a62461bcd028152600401808060200182810382526031815260200180613bfa6031913960400191505060405180910390fd5b611300838383612837565b60009081526001602052604090206002015490565b60408051600080516020613a668339815191528152905190819003600701902081565b6114b88282612adf565b60408051600080516020613a668339815191528152905190819003600701902082141561151457604051600160a060020a038216907fa9a8b2f8fb6763e00282add661bca3f2b49006e30222824c36a47a3de1f6b25890600090a25b604080516000805160206139ea8339815191528152905190819003600601902082141561157057604051600160a060020a038216907f55b8b14f54496759058770a8c7e52a71c6efc37767e7d6c2afe1f2e1fcebf95290600090a25b5050565b600160a060020a038216600090815260036020526040812061159c908363ffffffff612b4a16565b90505b92915050565b6115ad6129ae565b600160a060020a031681600160a060020a0316146115ff5760405160e560020a62461bcd02815260040180806020018281038252602f815260200180613c2b602f913960400191505060405180910390fd5b6115708282612b56565b600d54600160a060020a031681565b604080516000805160206139ea8339815191528152905190819003600601902081565b61130083838360405180602001604052806000815250611e7a565b8060008111801561166e575061166a611305565b8111155b6116b0576040805160e560020a62461bcd02815260206004820152601660248201526000805160206139a6833981519152604482015290519081900360640190fd5b81336116bb82611830565b600160a060020a031614611719576040805160e560020a62461bcd02815260206004820152601f60248201527f43616c6c657220646f6573206e6f74206f776e20746869732067756974617200604482015290519081900360640190fd5b600061172c84600163ffffffff612bc516565b90506010818154811061173b57fe5b906000526020600020906004020160030160159054906101000a900460ff16156010828154811061176857fe5b906000526020600020906004020160030160156101000a81548160ff02191690831515021790555033600160a060020a0316847fb9267a0b93c34efc6e914a393e6238661c0eaef0eb51932ee122c0b0e1e45d0f601084815481106117c957fe5b6000918252602091829020600491909102016003015460408051750100000000000000000000000000000000000000000090920460ff1615158252519081900390910190a350505050565b60008061182860048463ffffffff612c0716565b509392505050565b600061159f82604051806060016040528060298152602001613ae8602991396004919063ffffffff612c2316565b600e818154811061186b57fe5b600091825260209091200154600160a060020a0316905081565b600b8054604080516020601f6002600019610100600188161502019095169490940493840181900481028201810190925282815260609390929091830182828015610c8d5780601f10610c6257610100808354040283529160200191610c8d565b6000600160a060020a0382166119305760405160e560020a62461bcd02815260040180806020018281038252602a815260200180613abe602a913960400191505060405180910390fd5b600160a060020a038216600090815260036020526040902061159f90612a2d565b6119596129ae565b600054600160a060020a039081169116146119be576040805160e560020a62461bcd02815260206004820181905260248201527f4f776e61626c653a2063616c6c6572206973206e6f7420746865206f776e6572604482015290519081900360640190fd5b60008054604051600160a060020a03909116907f8be0079c531659141344cd1fd0a4f28419497f9722a3daafe3b4186f6b6457e0908390a36000805473ffffffffffffffffffffffffffffffffffffffff19169055565b60606000611a21611305565b9050606081604051908082528060200260200182016040528015611a4f578160200160208202803883390190505b50905060005b82811015611aad5760108181548110611a6a57fe5b906000526020600020906004020160030160159054906101000a900460ff16828281518110611a9557fe5b91151560209283029190910190910152600101611a55565b5091505090565b600054600160a060020a031690565b600082815260016020526040812061159c908363ffffffff612b4a16565b600082815260016020526040812061159c908363ffffffff612c3a16565b60098054604080516020601f6002600019610100600188161502019095169490940493840181900481028201810190925282815260609390929091830182828015610c8d5780601f10610c6257610100808354040283529160200191610c8d565b600081565b611b6d6129ae565b600160a060020a031682600160a060020a03161415611bd6576040805160e560020a62461bcd02815260206004820152601960248201527f4552433732313a20617070726f766520746f2063616c6c657200000000000000604482015290519081900360640190fd5b8060076000611be36129ae565b600160a060020a03908116825260208083019390935260409182016000908120918716808252919093529120805460ff191692151592909217909155611c276129ae565b6040805184151581529051600160a060020a0392909216917f17307eab39ab6107e8899845ad3d59bd9653f200f220920489ca2b5937696c319181900360200190a35050565b81600081118015611c855750611c81611305565b8111155b611cc7576040805160e560020a62461bcd02815260206004820152601660248201526000805160206139a6833981519152604482015290519081900360640190fd5b8233611cd282611830565b600160a060020a031614611d30576040805160e560020a62461bcd02815260206004820152601f60248201527f43616c6c657220646f6573206e6f74206f776e20746869732067756974617200604482015290519081900360640190fd5b8260010183108015611d425750600083115b611d4b57600080fd5b826010611d5f86600163ffffffff612bc516565b81548110611d6957fe5b9060005260206000209060040201600101541415611dd1576040805160e560020a62461bcd02815260206004820152601560248201527f507269636520686173206e6f74206368616e6765640000000000000000000000604482015290519081900360640190fd5b60006010611de686600163ffffffff612bc516565b81548110611df057fe5b9060005260206000209060040201600101549050836010611e1b600188612bc590919063ffffffff16565b81548110611e2557fe5b90600052602060002090600402016001018190555083857f3d1d533a9d3773ed7f00ba6435b0cbea2d9603b10c077893ea918452d5c9818f836040518082815260200191505060405180910390a35050505050565b611e8b611e856129ae565b83612a38565b611ec95760405160e560020a62461bcd028152600401808060200182810382526031815260200180613bfa6031913960400191505060405180910390fd5b611ed584848484612c4f565b50505050565b6060600080600080600086600081118015611efd5750611ef9611305565b8111155b611f3f576040805160e560020a62461bcd02815260206004820152601660248201526000805160206139a6833981519152604482015290519081900360640190fd5b60018803975060108881548110611f5257fe5b906000526020600020906004020160000160108981548110611f7057fe5b90600052602060002090600402016001015460108a81548110611f8f57fe5b90600052602060002090600402016002015460108b81548110611fae57fe5b906000526020600020906004020160030160009054906101000a9004600160a060020a031660108c81548110611fe057fe5b906000526020600020906004020160030160149054906101000a900460ff1660108d8154811061200c57fe5b6000918252602091829020600491909102016003015486546040805160026101006001851615026000190190931692909204601f8101859004850283018501909152808252750100000000000000000000000000000000000000000090920460ff1692909188918301828280156120c45780601f10612099576101008083540402835291602001916120c4565b820191906000526020600020905b8154815290600101906020018083116120a757829003601f168201915b505050505095509650965096509650965096505091939550919395565b60606120ec8261299b565b61212a5760405160e560020a62461bcd02815260040180806020018281038252602f815260200180613baa602f913960400191505060405180910390fd5b6000828152600a602090815260409182902080548351601f60026000196101006001861615020190931692909204918201849004840281018401909452808452606093928301828280156121bf5780601f10612194576101008083540402835291602001916121bf565b820191906000526020600020905b8154815290600101906020018083116121a257829003601f168201915b5050600b54939450505050600260001961010060018416150201909116046121e8579050610bfc565b8051156122b957600b8160405160200180838054600181600116156101000203166002900480156122505780601f1061222e576101008083540402835291820191612250565b820191906000526020600020905b81548152906001019060200180831161223c575b5050825160208401908083835b6020831061227c5780518252601f19909201916020918201910161225d565b6001836020036101000a03801982511681845116808217855250505050505090500192505050604051602081830303815290604052915050610bfc565b600b6122c484612ca4565b60405160200180838054600181600116156101000203166002900480156123225780601f10612300576101008083540402835291820191612322565b820191906000526020600020905b81548152906001019060200180831161230e575b5050825160208401908083835b6020831061234e5780518252601f19909201916020918201910161232f565b6001836020036101000a03801982511681845116808217855250505050505090500192505050604051602081830303815290604052915050919050565b600081815260016020526040812061159f90612a2d565b6123ac8282612dbb565b60408051600080516020613a668339815191528152905190819003600701902082141561240857604051600160a060020a038216907f3da488d26baed03bfd5d0a645650fd957647aad20d0a1b1194b35945a40584cc90600090a25b604080516000805160206139ea8339815191528152905190819003600601902082141561157057604051600160a060020a038216907fa82180c347ed5391b5761215e417f72356a2881abf4b71699c8e76cbd2773a9890600090a25050565b60408051600080516020613a66833981519152815290519081900360070190206124919033611ae1565b6124e5576040805160e560020a62461bcd02815260206004820152601c60248201527f43616c6c6572206973206e6f742061206d616e75666163747572657200000000604482015290519081900360640190fd5b80600101811080156124f75750600081115b61250057600080fd5b600061251b600161250f611305565b9063ffffffff612e1716565b90506125273382612e74565b6040805160c081018252848152602080820185905291810183905233606082015260016080820181905260a08201819052601080549182018155600081905282518051919460049093027f1b6847dc741a1b0cd08d278845f9d819d87b734759afb55fe2de5cb82a9ae67201926125a392849290910190613841565b5060208281015160018301556040808401516002840155606084015160039093018054608086015160a090960151151575010000000000000000000000000000000000000000000275ff00000000000000000000000000000000000000000019961515740100000000000000000000000000000000000000000274ff000000000000000000000000000000000000000019600160a060020a0390971673ffffffffffffffffffffffffffffffffffffffff199093169290921795909516179490941692909217909255805184815290517f553eb61682b3ac0410eeecefcb06f6776bb852f13b246ce56d61f55230ee78b1929181900390910190a1604080514281529051339160009185917fbacfd126cee076bd28cd01fc19658d23a599204832371c52e7478669373bdc20919081900360200190a450505050565b600f818154811061186b57fe5b600160a060020a03918216600090815260076020908152604080832093909416825291909152205460ff1690565b6127226129ae565b600054600160a060020a03908116911614612787576040805160e560020a62461bcd02815260206004820181905260248201527f4f776e61626c653a2063616c6c6572206973206e6f7420746865206f776e6572604482015290519081900360640190fd5b600160a060020a0381166127cf5760405160e560020a62461bcd0281526004018080602001828103825260268152602001806139806026913960400191505060405180910390fd5b60008054604051600160a060020a03808516939216917f8be0079c531659141344cd1fd0a4f28419497f9722a3daafe3b4186f6b6457e091a36000805473ffffffffffffffffffffffffffffffffffffffff1916600160a060020a0392909216919091179055565b82600160a060020a031661284a82611830565b600160a060020a0316146128925760405160e560020a62461bcd028152600401808060200182810382526029815260200180613b816029913960400191505060405180910390fd5b600160a060020a0382166128da5760405160e560020a62461bcd0281526004018080602001828103825260248152602001806139c66024913960400191505060405180910390fd5b6128e5838383611300565b6128f06000826129b2565b600160a060020a0383166000908152600360205260409020612918908263ffffffff612e8e16565b50600160a060020a0382166000908152600360205260409020612941908263ffffffff612e9a16565b506129546004828463ffffffff612ea616565b508082600160a060020a031684600160a060020a03167fddf252ad1be2c89b69c2b068fc378daa952ba7f163c4a11628f55a4df523b3ef60405160405180910390a4505050565b600061159f60048363ffffffff612ebc16565b3390565b6000818152600660205260409020805473ffffffffffffffffffffffffffffffffffffffff1916600160a060020a03841690811790915581906129f482611830565b600160a060020a03167f8c5be1e5ebec7d5bd14f71427d1e84f3dd0314c0f7b2291e5b200ac8c7c3b92560405160405180910390a45050565b600061159f82612ec8565b6000612a438261299b565b612a815760405160e560020a62461bcd02815260040180806020018281038252602c815260200180613a0a602c913960400191505060405180910390fd5b6000612a8c83611830565b905080600160a060020a031684600160a060020a03161480612ac7575083600160a060020a0316612abc846111bf565b600160a060020a0316145b80612ad75750612ad781856126ec565b949350505050565b600082815260016020526040902060020154612b0290612afd6129ae565b611ae1565b612b405760405160e560020a62461bcd02815260040180806020018281038252602f8152602001806138fc602f913960400191505060405180910390fd5b6115708282612ecc565b600061159c8383612f3b565b6000828152600160205260409020612b74908263ffffffff612fa216565b1561157057612b816129ae565b600160a060020a031681600160a060020a0316837ff6391f5c32d9c69d2a47ea670b442974b53935d1edc7fd64eb21e047a839171b60405160405180910390a45050565b600061159c83836040518060400160405280601e81526020017f536166654d6174683a207375627472616374696f6e206f766572666c6f770000815250612fb7565b6000808080612c168686613051565b9097909650945050505050565b6000612c308484846130cf565b90505b9392505050565b600061159c83600160a060020a03841661315f565b612c5a848484612837565b612c6684848484613177565b611ed55760405160e560020a62461bcd02815260040180806020018281038252603281526020018061394e6032913960400191505060405180910390fd5b606081612ce5575060408051808201909152600181527f30000000000000000000000000000000000000000000000000000000000000006020820152610bfc565b8160005b8115612cfd57600101600a82049150612ce9565b6060816040519080825280601f01601f191660200182016040528015612d2a576020820181803883390190505b50859350905060001982015b8315612db257600a84066030017f01000000000000000000000000000000000000000000000000000000000000000282828060019003935081518110612d7857fe5b60200101907effffffffffffffffffffffffffffffffffffffffffffffffffffffffffffff1916908160001a905350600a84049350612d36565b50949350505050565b600082815260016020526040902060020154612dd990612afd6129ae565b6115ff5760405160e560020a62461bcd028152600401808060200182810382526030815260200180613a366030913960400191505060405180910390fd5b60008282018381101561159c576040805160e560020a62461bcd02815260206004820152601b60248201527f536166654d6174683a206164646974696f6e206f766572666c6f770000000000604482015290519081900360640190fd5b611570828260405180602001604052806000815250613368565b600061159c83836133bd565b600061159c8383613483565b6000612c308484600160a060020a0385166134cd565b600061159c838361315f565b5490565b6000828152600160205260409020612eea908263ffffffff61356416565b1561157057612ef76129ae565b600160a060020a031681600160a060020a0316837f2f8788117e7eff1d82e926ec794901d17c78024a50270940304540a733656f0d60405160405180910390a45050565b81546000908210612f805760405160e560020a62461bcd0281526004018080602001828103825260228152602001806138da6022913960400191505060405180910390fd5b826000018281548110612f8f57fe5b9060005260206000200154905092915050565b600061159c83600160a060020a0384166133bd565b600081848411156130495760405160e560020a62461bcd0281526004018080602001828103825283818151815260200191508051906020019080838360005b8381101561300e578181015183820152602001612ff6565b50505050905090810190601f16801561303b5780820380516001836020036101000a031916815260200191505b509250505060405180910390fd5b505050900390565b8154600090819083106130985760405160e560020a62461bcd028152600401808060200182810382526022815260200180613b116022913960400191505060405180910390fd5b60008460000184815481106130a957fe5b906000526020600020906002020190508060000154816001015492509250509250929050565b600082815260018401602052604081205482816131305760405160e560020a62461bcd02815260206004820181815283516024840152835190928392604490910191908501908083836000831561300e578181015183820152602001612ff6565b5084600001600182038154811061314357fe5b9060005260206000209060020201600101549150509392505050565b60009081526001919091016020526040902054151590565b600061318b84600160a060020a0316613579565b61319757506001612ad7565b60606133007f150b7a02000000000000000000000000000000000000000000000000000000006131c56129ae565b8887876040516024018085600160a060020a0316600160a060020a0316815260200184600160a060020a0316600160a060020a0316815260200183815260200180602001828103825283818151815260200191508051906020019080838360005b8381101561323e578181015183820152602001613226565b50505050905090810190601f16801561326b5780820380516001836020036101000a031916815260200191505b5095505050505050604051602081830303815290604052907bffffffffffffffffffffffffffffffffffffffffffffffffffffffff19166020820180517bffffffffffffffffffffffffffffffffffffffffffffffffffffffff838183161783525050505060405180606001604052806032815260200161394e60329139600160a060020a038816919063ffffffff61357f16565b9050600081806020019051602081101561331957600080fd5b50517bffffffffffffffffffffffffffffffffffffffffffffffffffffffff19167f150b7a02000000000000000000000000000000000000000000000000000000001492505050949350505050565b613372838361358e565b61337f6000848484613177565b6113005760405160e560020a62461bcd02815260040180806020018281038252603281526020018061394e6032913960400191505060405180910390fd5b6000818152600183016020526040812054801561347957835460001980830191908101906000908790839081106133f057fe5b906000526020600020015490508087600001848154811061340d57fe5b60009182526020808320909101929092558281526001898101909252604090209084019055865487908061343d57fe5b6001900381819060005260206000200160009055905586600101600087815260200190815260200160002060009055600194505050505061159f565b600091505061159f565b600061348f838361315f565b6134c55750815460018181018455600084815260208082209093018490558454848252828601909352604090209190915561159f565b50600061159f565b600082815260018401602052604081205480613532575050604080518082018252838152602080820184815286546001818101895560008981528481209551600290930290950191825591519082015586548684528188019092529290912055612c33565b8285600001600183038154811061354557fe5b9060005260206000209060020201600101819055506000915050612c33565b600061159c83600160a060020a038416613483565b3b151590565b6060612c3084846000856136ce565b600160a060020a0382166135ec576040805160e560020a62461bcd02815260206004820181905260248201527f4552433732313a206d696e7420746f20746865207a65726f2061646472657373604482015290519081900360640190fd5b6135f58161299b565b1561364a576040805160e560020a62461bcd02815260206004820152601c60248201527f4552433732313a20746f6b656e20616c7265616479206d696e74656400000000604482015290519081900360640190fd5b61365660008383611300565b600160a060020a038216600090815260036020526040902061367e908263ffffffff612e9a16565b506136916004828463ffffffff612ea616565b506040518190600160a060020a038416906000907fddf252ad1be2c89b69c2b068fc378daa952ba7f163c4a11628f55a4df523b3ef908290a45050565b60606136d985613579565b61372d576040805160e560020a62461bcd02815260206004820152601d60248201527f416464726573733a2063616c6c20746f206e6f6e2d636f6e7472616374000000604482015290519081900360640190fd5b6000606086600160a060020a031685876040518082805190602001908083835b6020831061376c5780518252601f19909201916020918201910161374d565b6001836020036101000a03801982511681845116808217855250505050505090500191505060006040518083038185875af1925050503d80600081146137ce576040519150601f19603f3d011682016040523d82523d6000602084013e6137d3565b606091505b509150915081156137e7579150612ad79050565b8051156137f75780518082602001fd5b60405160e560020a62461bcd02815260206004820181815286516024840152865187939192839260440191908501908083836000831561300e578181015183820152602001612ff6565b828054600181600116156101000203166002900490600052602060002090601f016020900481019282601f1061388257805160ff19168380011785556138af565b828001600101855582156138af579182015b828111156138af578251825591602001919060010190613894565b506138bb9291506138bf565b5090565b610c9591905b808211156138bb57600081556001016138c556fe456e756d657261626c655365743a20696e646578206f7574206f6620626f756e6473416363657373436f6e74726f6c3a2073656e646572206d75737420626520616e2061646d696e20746f206772616e744e6f7420656e6f756768206d6f6e657920746f206275792074686973206265617574794552433732313a207472616e7366657220746f206e6f6e20455243373231526563656976657220696d706c656d656e7465724f776e61626c653a206e6577206f776e657220697320746865207a65726f206164647265737347756974617220646f6573206e6f7420657869737421000000000000000000004552433732313a207472616e7366657220746f20746865207a65726f20616464726573734445414c455200000000000000000000000000000000000000000000000000004552433732313a206f70657261746f7220717565727920666f72206e6f6e6578697374656e7420746f6b656e416363657373436f6e74726f6c3a2073656e646572206d75737420626520616e2061646d696e20746f207265766f6b65464143544f5259000000000000000000000000000000000000000000000000004552433732313a20617070726f76652063616c6c6572206973206e6f74206f776e6572206e6f7220617070726f76656420666f7220616c6c4552433732313a2062616c616e636520717565727920666f7220746865207a65726f20616464726573734552433732313a206f776e657220717565727920666f72206e6f6e6578697374656e7420746f6b656e456e756d657261626c654d61703a20696e646578206f7574206f6620626f756e6473596f7520616c72656164792068617665207468697320696e737472756d656e7421214552433732313a20617070726f76656420717565727920666f72206e6f6e6578697374656e7420746f6b656e4552433732313a207472616e73666572206f6620746f6b656e2074686174206973206e6f74206f776e4552433732314d657461646174613a2055524920717565727920666f72206e6f6e6578697374656e7420746f6b656e4552433732313a20617070726f76616c20746f2063757272656e74206f776e65724552433732313a207472616e736665722063616c6c6572206973206e6f74206f776e6572206e6f7220617070726f766564416363657373436f6e74726f6c3a2063616e206f6e6c792072656e6f756e636520726f6c657320666f722073656c66a2646970667358221220992040cbae0d1aaf06c7c264dafef3a7ec1c3979c3fbf43998a06948dd1270f464736f6c63430006020033",
  "source": "// SPDX-License-Identifier: FGG\n\npragma solidity ^0.6.2;\n\nimport \"@openzeppelin/contracts/math/SafeMath.sol\";\nimport \"@openzeppelin/contracts/access/Ownable.sol\";\nimport \"@openzeppelin/contracts/access/AccessControl.sol\";\nimport \"@openzeppelin/contracts/token/ERC721/ERC721.sol\";\nimport \"@openzeppelin/contracts/utils/ReentrancyGuard.sol\";\n\n\n/**\n * @title GuitarBrand \n * @dev Non-Fungible Token built on ERC721 standard, to create and transfer guitar ownership,\n * the contract represent the NFT for a guitar brand, \n * defines who can create more guitars and set guitar dealers via role assignation.\n * It also works as registry of the guitars made by this brand.\n * @author Fernando Garduo Galaviz\n */\n\ncontract GuitarBrand is Ownable, AccessControl, ERC721, ReentrancyGuard{\n    using SafeMath for uint256;\n    \n    address public brandOwner;\n    // List of all the factories for this brand\n    address[] public factories;\n    // List of all the dealers of this guitar brand\n    address[] public dealers;\n    Guitar[] public guitars;\n\n    \n    /** \n    * @dev Roles' encoding\n    * FACTORY is analog to a minter, they can make new guitars\n    * Only dealers and factories can sell new guitars \n    * Regular owners of a guitar just can sell used guitars\n    */\n    bytes32 public constant FACTORY = keccak256(\"FACTORY\");  \n    bytes32 public constant DEALER = keccak256(\"DEALER\"); \n\n\n\n    // Guitar Struct has all the attributes corresponding to token with Id `serial`\n    struct Guitar {\n        string model;\n        uint price;\n        uint serial;\n        address factory;\n        bool isNew;\n        bool forSale;\n    }\n\n    /**\n     * Events\n     */\n    event NewGuitarMinted(uint _serial);\n    event ChangeGuitarOwnership(uint indexed _serial, address indexed previousOwner, address indexed newOwner, uint txTime);\n    event ChangeGuitarPrice(uint indexed _serial, uint indexed _newPrice, uint _previousPrice);\n    event SaleStatus(uint indexed _serial, address indexed Owner, bool _selling);\n    event NewFactory(address indexed account);\n    event ClosedFactory(address indexed account);\n    event subDealear(address indexed account);\n    event unsubDealer(address indexed account);\n\n    /**\n    * @dev The role FACTORY is the only one who can made guitars!!!!!!! (scream on guitars  with metal voice)\n    */\n    modifier onlyFactories() {\n        // only a factory with must call this function\n        require(hasRole(FACTORY, msg.sender), \"Caller is not a manufacturer\");\n        _;\n    }\n\n    /**\n    * @dev Modifier use to allow change price of an instrument and get it back to sale market\n    */\n    modifier onlyGuitarOwner(uint _serial) {\n        // only a the owner f the instrument\n        require(ownerOf(_serial) == msg.sender, \"Caller does not own this guitar\");\n        _;\n    }\n    \n    /**\n    * @dev Just checks the existence of a guitar\n    */\n\n    modifier ifGuitarExists (uint _serial){\n        require(_serial > 0 && _serial <= totalSupply(), \"Guitar does not exist!\");\n        _;\n    } \n\n        \n    /**\n    * @dev Just checks the existence of a guitar\n    */\n\n    modifier isForSale (uint _serial){\n        require(_serial > 0 && _serial <= totalSupply(), \"Guitar does not exist!\");\n        require(guitars[_serial-1].forSale, \"Not for sale in this moment!\");\n        _;\n    } \n\n  \n    /**\n     * @dev Initializes the contract by setting a `brandName` and a `brandSymbol` to the token collection.\n     * Its set the 'brandOwner' to the owner contract which bay default it's  the one who instantiated it.\n     * The hierachy in the company it's defined by the owner who can grant any role, the factories can\n     * grant or revoke the dealer role using granRole/revokeRol functions from AccesControl\n     */\n    constructor(string memory brandName, string memory brandSymbol)\n     ERC721(brandName, brandSymbol) public\n      {\n        brandOwner = owner(); \n        _setupRole(DEFAULT_ADMIN_ROLE, brandOwner);\n        _setupRole(FACTORY, brandOwner);\n        _setRoleAdmin(DEALER, FACTORY);  \n    }\n\n    /**\n     * @dev It overrides AccesControl.sol's funtion to emit the proper event\n     */\n    function grantRole(bytes32 role, address account) public override{\n        AccessControl.grantRole(role,account);\n        if(FACTORY == role){emit NewFactory(account);}\n        if(DEALER == role){emit subDealear(account);}\n    }\n\n        /**\n     * @dev It overrides AccesControl.sol's funtion to emit the proper event\n     */\n    function revokeRole(bytes32 role, address account) public override{\n        AccessControl.revokeRole(role,account);\n        if(FACTORY == role){emit ClosedFactory(account);}\n        if(DEALER == role){emit unsubDealer(account);}\n    }\n\n    /**\n    * @dev Just for testing purposes\n    * @return All the values of Guitar struct as a single string, separating the member of the strub by comma\n    */\n    function guitarData(uint _serial) public view ifGuitarExists(_serial) returns (string memory, uint, uint, address, bool, bool) {\n        _serial = _serial-1; // the nth guitar is store in the index n-1 of guitars array\n        return (guitars[_serial].model, guitars[_serial].price, guitars[_serial].serial, guitars[_serial].factory, guitars[_serial].isNew, guitars[_serial].forSale);\n    }\n\n    /**\n     * @dev It creates a structure that accounts for a guitar construction\n     * this structure it's related to the token set in the contructor function\n     */\n    function mintGuitar(string memory _model, uint _price) public onlyFactories {\n        // to prevent overflow and set a correct value for sale\n        require( _price < _price+1 && _price > 0);\n        // the guitar is mint and its info added to array of guitar created\n        uint _serial = totalSupply().add(1);\n        _safeMint(msg.sender, _serial);\n        Guitar[] storage gtrs = guitars;\n        gtrs.push(Guitar(_model, _price, _serial, msg.sender, true, true));\n        emit NewGuitarMinted(_serial);\n        // sets the ownership of the instrument to the factory\n        emit ChangeGuitarOwnership(_serial, address(0x0), msg.sender, now);\n    }\n\n    /**\n    * @dev The guitar owner can change the price of the instrument\n    */\n\n    function changePrice(uint _serial, uint _newPrice) public ifGuitarExists(_serial) onlyGuitarOwner(_serial){\n        // to prevent overflow and set a correct value for sale\n        require( _newPrice < _newPrice+1 && _newPrice > 0);\n        require(guitars[_serial.sub(1)].price != _newPrice, \"Price has not changed\");\n        uint _previousPrice =  guitars[_serial.sub(1)].price;\n        guitars[_serial.sub(1)].price = _newPrice;\n        emit ChangeGuitarPrice(_serial, _newPrice, _previousPrice);\n    }\n\n    /**\n    * @dev The guitar owner can change the price of the instrument\n    */\n\n    function changeSaleStatus(uint _serial) public ifGuitarExists(_serial) onlyGuitarOwner(_serial){\n        uint n =  _serial.sub(1);\n        guitars[n].forSale = !(guitars[n].forSale);\n        emit SaleStatus(_serial, msg.sender, guitars[n].forSale);\n    }\n\n    /**\n    * @dev This function retrieves sale status of all the guitar ever minted, it is meant to feed web's applications\n    */\n\n    function theseAreForSale() public view returns(bool[] memory){\n        uint n = totalSupply();\n        bool[] memory saleStock = new bool[](n);\n        for (uint i=0; i<n; i++) {\n            saleStock[i] = guitars[i].forSale;\n            }\n        return saleStock;\n    }\n\n\n    /**\n    * @dev The owner of the instrument must have a payable address,\n    * the guard is used because is the only function that transfer actual funds.\n    * If the buyer is not a deelaer or a factory the instrument becomes used\n    */\n\n    function buyGuitar(uint _serial) external payable ifGuitarExists(_serial) isForSale(_serial) nonReentrant() {\n        require(msg.value >= guitars[_serial].price, \"Not enough money to buy this beauty\");\n        require(!hasRole(FACTORY,msg.sender), \"Factories make, they do not buy\");\n        address ownerAddress = ownerOf(_serial);\n        require(ownerAddress != msg.sender, \"You already have this instrument!!\");\n        // This bool explainf if has a rol like dealer or factory\n        bool WITHOUT_ROL = false;\n        if(!(hasRole(FACTORY,msg.sender)||hasRole(DEALER,msg.sender))){WITHOUT_ROL  = true;}\n        bool ONLY_DEALER_SENDER = (!hasRole(FACTORY,msg.sender))&&hasRole(DEALER,msg.sender);\n        bool ONLY_DEALER_OWNER = (!hasRole(FACTORY,ownerAddress))&&hasRole(DEALER,ownerAddress);\n        require(!(ONLY_DEALER_SENDER && ONLY_DEALER_OWNER), \"Dealers can not trade among them\");\n        // cast into payble address and transfer funds to buy the address\n        address(uint160(ownerAddress)).transfer(msg.value);\n        // transfer guitar property\n        _transfer(ownerAddress, msg.sender, _serial);\n        // Here becomes used, it was bought by a regular user\n       if(WITHOUT_ROL){guitars[_serial].isNew = false;} \n       // Convey to everyone this one has already been bought\n       emit ChangeGuitarOwnership(_serial, ownerAddress, msg.sender, now);\n    }\n\n\n\n}",
  "sourcePath": "/home/chuqui/Fernando/consensys_bootcamp_project/contracts/GuitarBrand.sol",
  "compiler": {
    "name": "solc",
    "version": "0.6.2+commit.bacdbe57.Emscripten.clang"
  },
  "schemaVersion": "3.3.2",
  "updatedAt": "2020-11-30T06:50:26.823Z",
  "networkType": "ethereum",
  "devdoc": {
    "author": "Fernando Garduo Galaviz",
    "details": "Non-Fungible Token built on ERC721 standard, to create and transfer guitar ownership, the contract represent the NFT for a guitar brand,  defines who can create more guitars and set guitar dealers via role assignation. It also works as registry of the guitars made by this brand.",
    "methods": {
      "approve(address,uint256)": {
        "details": "See {IERC721-approve}."
      },
      "balanceOf(address)": {
        "details": "See {IERC721-balanceOf}."
      },
      "baseURI()": {
        "details": "Returns the base URI set via {_setBaseURI}. This will be automatically added as a prefix in {tokenURI} to each token's URI, or to the token ID if no specific URI is set for that token ID."
      },
      "buyGuitar(uint256)": {
        "details": "The owner of the instrument must have a payable address, the guard is used because is the only function that transfer actual funds. If the buyer is not a deelaer or a factory the instrument becomes used"
      },
      "changePrice(uint256,uint256)": {
        "details": "The guitar owner can change the price of the instrument"
      },
      "changeSaleStatus(uint256)": {
        "details": "The guitar owner can change the price of the instrument"
      },
      "constructor": {
        "details": "Initializes the contract by setting a `brandName` and a `brandSymbol` to the token collection. Its set the 'brandOwner' to the owner contract which bay default it's  the one who instantiated it. The hierachy in the company it's defined by the owner who can grant any role, the factories can grant or revoke the dealer role using granRole/revokeRol functions from AccesControl"
      },
      "getApproved(uint256)": {
        "details": "See {IERC721-getApproved}."
      },
      "getRoleAdmin(bytes32)": {
        "details": "Returns the admin role that controls `role`. See {grantRole} and {revokeRole}.     * To change a role's admin, use {_setRoleAdmin}."
      },
      "getRoleMember(bytes32,uint256)": {
        "details": "Returns one of the accounts that have `role`. `index` must be a value between 0 and {getRoleMemberCount}, non-inclusive.     * Role bearers are not sorted in any particular way, and their ordering may change at any point.     * WARNING: When using {getRoleMember} and {getRoleMemberCount}, make sure you perform all queries on the same block. See the following https://forum.openzeppelin.com/t/iterating-over-elements-on-enumerableset-in-openzeppelin-contracts/2296[forum post] for more information."
      },
      "getRoleMemberCount(bytes32)": {
        "details": "Returns the number of accounts that have `role`. Can be used together with {getRoleMember} to enumerate all bearers of a role."
      },
      "grantRole(bytes32,address)": {
        "details": "It overrides AccesControl.sol's funtion to emit the proper event"
      },
      "guitarData(uint256)": {
        "details": "Just for testing purposes",
        "returns": {
          "_0": "All the values of Guitar struct as a single string, separating the member of the strub by comma"
        }
      },
      "hasRole(bytes32,address)": {
        "details": "Returns `true` if `account` has been granted `role`."
      },
      "isApprovedForAll(address,address)": {
        "details": "See {IERC721-isApprovedForAll}."
      },
      "mintGuitar(string,uint256)": {
        "details": "It creates a structure that accounts for a guitar construction this structure it's related to the token set in the contructor function"
      },
      "name()": {
        "details": "See {IERC721Metadata-name}."
      },
      "owner()": {
        "details": "Returns the address of the current owner."
      },
      "ownerOf(uint256)": {
        "details": "See {IERC721-ownerOf}."
      },
      "renounceOwnership()": {
        "details": "Leaves the contract without owner. It will not be possible to call `onlyOwner` functions anymore. Can only be called by the current owner.     * NOTE: Renouncing ownership will leave the contract without an owner, thereby removing any functionality that is only available to the owner."
      },
      "renounceRole(bytes32,address)": {
        "details": "Revokes `role` from the calling account.     * Roles are often managed via {grantRole} and {revokeRole}: this function's purpose is to provide a mechanism for accounts to lose their privileges if they are compromised (such as when a trusted device is misplaced).     * If the calling account had been granted `role`, emits a {RoleRevoked} event.     * Requirements:     * - the caller must be `account`."
      },
      "revokeRole(bytes32,address)": {
        "details": "It overrides AccesControl.sol's funtion to emit the proper event"
      },
      "safeTransferFrom(address,address,uint256)": {
        "details": "See {IERC721-safeTransferFrom}."
      },
      "safeTransferFrom(address,address,uint256,bytes)": {
        "details": "See {IERC721-safeTransferFrom}."
      },
      "setApprovalForAll(address,bool)": {
        "details": "See {IERC721-setApprovalForAll}."
      },
      "supportsInterface(bytes4)": {
        "details": "See {IERC165-supportsInterface}.     * Time complexity O(1), guaranteed to always use less than 30 000 gas."
      },
      "symbol()": {
        "details": "See {IERC721Metadata-symbol}."
      },
      "theseAreForSale()": {
        "details": "This function retrieves sale status of all the guitar ever minted, it is meant to feed web's applications"
      },
      "tokenByIndex(uint256)": {
        "details": "See {IERC721Enumerable-tokenByIndex}."
      },
      "tokenOfOwnerByIndex(address,uint256)": {
        "details": "See {IERC721Enumerable-tokenOfOwnerByIndex}."
      },
      "tokenURI(uint256)": {
        "details": "See {IERC721Metadata-tokenURI}."
      },
      "totalSupply()": {
        "details": "See {IERC721Enumerable-totalSupply}."
      },
      "transferFrom(address,address,uint256)": {
        "details": "See {IERC721-transferFrom}."
      },
      "transferOwnership(address)": {
        "details": "Transfers ownership of the contract to a new account (`newOwner`). Can only be called by the current owner."
      }
    },
    "title": "GuitarBrand "
  },
  "userdoc": {
    "methods": {}
  }
}