{
  "contractName": "GuitarBrand",
  "abi": [
    {
      "inputs": [
        {
          "internalType": "string",
          "name": "brandName",
          "type": "string"
        },
        {
          "internalType": "string",
          "name": "brandSymbol",
          "type": "string"
        }
      ],
      "stateMutability": "nonpayable",
      "type": "constructor"
    },
    {
      "anonymous": false,
      "inputs": [
        {
          "indexed": true,
          "internalType": "address",
          "name": "owner",
          "type": "address"
        },
        {
          "indexed": true,
          "internalType": "address",
          "name": "approved",
          "type": "address"
        },
        {
          "indexed": true,
          "internalType": "uint256",
          "name": "tokenId",
          "type": "uint256"
        }
      ],
      "name": "Approval",
      "type": "event"
    },
    {
      "anonymous": false,
      "inputs": [
        {
          "indexed": true,
          "internalType": "address",
          "name": "owner",
          "type": "address"
        },
        {
          "indexed": true,
          "internalType": "address",
          "name": "operator",
          "type": "address"
        },
        {
          "indexed": false,
          "internalType": "bool",
          "name": "approved",
          "type": "bool"
        }
      ],
      "name": "ApprovalForAll",
      "type": "event"
    },
    {
      "anonymous": false,
      "inputs": [
        {
          "indexed": true,
          "internalType": "uint256",
          "name": "_serial",
          "type": "uint256"
        },
        {
          "indexed": true,
          "internalType": "address",
          "name": "previousOwner",
          "type": "address"
        },
        {
          "indexed": true,
          "internalType": "address",
          "name": "newOwner",
          "type": "address"
        },
        {
          "indexed": false,
          "internalType": "uint256",
          "name": "txTime",
          "type": "uint256"
        }
      ],
      "name": "ChangeGuitarOwnership",
      "type": "event"
    },
    {
      "anonymous": false,
      "inputs": [
        {
          "indexed": true,
          "internalType": "uint256",
          "name": "_serial",
          "type": "uint256"
        },
        {
          "indexed": true,
          "internalType": "uint256",
          "name": "_newPrice",
          "type": "uint256"
        },
        {
          "indexed": false,
          "internalType": "uint256",
          "name": "_previousPrice",
          "type": "uint256"
        }
      ],
      "name": "ChangeGuitarPrice",
      "type": "event"
    },
    {
      "anonymous": false,
      "inputs": [
        {
          "indexed": true,
          "internalType": "address",
          "name": "account",
          "type": "address"
        }
      ],
      "name": "ClosedFactory",
      "type": "event"
    },
    {
      "anonymous": false,
      "inputs": [
        {
          "indexed": true,
          "internalType": "address",
          "name": "account",
          "type": "address"
        }
      ],
      "name": "NewFactory",
      "type": "event"
    },
    {
      "anonymous": false,
      "inputs": [
        {
          "indexed": false,
          "internalType": "uint256",
          "name": "_serial",
          "type": "uint256"
        }
      ],
      "name": "NewGuitarMinted",
      "type": "event"
    },
    {
      "anonymous": false,
      "inputs": [
        {
          "indexed": true,
          "internalType": "address",
          "name": "previousOwner",
          "type": "address"
        },
        {
          "indexed": true,
          "internalType": "address",
          "name": "newOwner",
          "type": "address"
        }
      ],
      "name": "OwnershipTransferred",
      "type": "event"
    },
    {
      "anonymous": false,
      "inputs": [
        {
          "indexed": true,
          "internalType": "bytes32",
          "name": "role",
          "type": "bytes32"
        },
        {
          "indexed": true,
          "internalType": "bytes32",
          "name": "previousAdminRole",
          "type": "bytes32"
        },
        {
          "indexed": true,
          "internalType": "bytes32",
          "name": "newAdminRole",
          "type": "bytes32"
        }
      ],
      "name": "RoleAdminChanged",
      "type": "event"
    },
    {
      "anonymous": false,
      "inputs": [
        {
          "indexed": true,
          "internalType": "bytes32",
          "name": "role",
          "type": "bytes32"
        },
        {
          "indexed": true,
          "internalType": "address",
          "name": "account",
          "type": "address"
        },
        {
          "indexed": true,
          "internalType": "address",
          "name": "sender",
          "type": "address"
        }
      ],
      "name": "RoleGranted",
      "type": "event"
    },
    {
      "anonymous": false,
      "inputs": [
        {
          "indexed": true,
          "internalType": "bytes32",
          "name": "role",
          "type": "bytes32"
        },
        {
          "indexed": true,
          "internalType": "address",
          "name": "account",
          "type": "address"
        },
        {
          "indexed": true,
          "internalType": "address",
          "name": "sender",
          "type": "address"
        }
      ],
      "name": "RoleRevoked",
      "type": "event"
    },
    {
      "anonymous": false,
      "inputs": [
        {
          "indexed": true,
          "internalType": "uint256",
          "name": "_serial",
          "type": "uint256"
        },
        {
          "indexed": true,
          "internalType": "address",
          "name": "Owner",
          "type": "address"
        },
        {
          "indexed": false,
          "internalType": "bool",
          "name": "_status",
          "type": "bool"
        }
      ],
      "name": "SaleStatus",
      "type": "event"
    },
    {
      "anonymous": false,
      "inputs": [
        {
          "indexed": true,
          "internalType": "address",
          "name": "from",
          "type": "address"
        },
        {
          "indexed": true,
          "internalType": "address",
          "name": "to",
          "type": "address"
        },
        {
          "indexed": true,
          "internalType": "uint256",
          "name": "tokenId",
          "type": "uint256"
        }
      ],
      "name": "Transfer",
      "type": "event"
    },
    {
      "anonymous": false,
      "inputs": [
        {
          "indexed": true,
          "internalType": "address",
          "name": "account",
          "type": "address"
        }
      ],
      "name": "subDealear",
      "type": "event"
    },
    {
      "anonymous": false,
      "inputs": [
        {
          "indexed": true,
          "internalType": "address",
          "name": "account",
          "type": "address"
        }
      ],
      "name": "unsubDealer",
      "type": "event"
    },
    {
      "inputs": [],
      "name": "DEALER",
      "outputs": [
        {
          "internalType": "bytes32",
          "name": "",
          "type": "bytes32"
        }
      ],
      "stateMutability": "view",
      "type": "function",
      "constant": true
    },
    {
      "inputs": [],
      "name": "DEFAULT_ADMIN_ROLE",
      "outputs": [
        {
          "internalType": "bytes32",
          "name": "",
          "type": "bytes32"
        }
      ],
      "stateMutability": "view",
      "type": "function",
      "constant": true
    },
    {
      "inputs": [],
      "name": "FACTORY",
      "outputs": [
        {
          "internalType": "bytes32",
          "name": "",
          "type": "bytes32"
        }
      ],
      "stateMutability": "view",
      "type": "function",
      "constant": true
    },
    {
      "inputs": [
        {
          "internalType": "address",
          "name": "to",
          "type": "address"
        },
        {
          "internalType": "uint256",
          "name": "tokenId",
          "type": "uint256"
        }
      ],
      "name": "approve",
      "outputs": [],
      "stateMutability": "nonpayable",
      "type": "function"
    },
    {
      "inputs": [
        {
          "internalType": "address",
          "name": "owner",
          "type": "address"
        }
      ],
      "name": "balanceOf",
      "outputs": [
        {
          "internalType": "uint256",
          "name": "",
          "type": "uint256"
        }
      ],
      "stateMutability": "view",
      "type": "function",
      "constant": true
    },
    {
      "inputs": [],
      "name": "baseURI",
      "outputs": [
        {
          "internalType": "string",
          "name": "",
          "type": "string"
        }
      ],
      "stateMutability": "view",
      "type": "function",
      "constant": true
    },
    {
      "inputs": [],
      "name": "brandOwner",
      "outputs": [
        {
          "internalType": "address",
          "name": "",
          "type": "address"
        }
      ],
      "stateMutability": "view",
      "type": "function",
      "constant": true
    },
    {
      "inputs": [
        {
          "internalType": "uint256",
          "name": "",
          "type": "uint256"
        }
      ],
      "name": "dealers",
      "outputs": [
        {
          "internalType": "address",
          "name": "",
          "type": "address"
        }
      ],
      "stateMutability": "view",
      "type": "function",
      "constant": true
    },
    {
      "inputs": [
        {
          "internalType": "uint256",
          "name": "",
          "type": "uint256"
        }
      ],
      "name": "factories",
      "outputs": [
        {
          "internalType": "address",
          "name": "",
          "type": "address"
        }
      ],
      "stateMutability": "view",
      "type": "function",
      "constant": true
    },
    {
      "inputs": [
        {
          "internalType": "uint256",
          "name": "tokenId",
          "type": "uint256"
        }
      ],
      "name": "getApproved",
      "outputs": [
        {
          "internalType": "address",
          "name": "",
          "type": "address"
        }
      ],
      "stateMutability": "view",
      "type": "function",
      "constant": true
    },
    {
      "inputs": [
        {
          "internalType": "bytes32",
          "name": "role",
          "type": "bytes32"
        }
      ],
      "name": "getRoleAdmin",
      "outputs": [
        {
          "internalType": "bytes32",
          "name": "",
          "type": "bytes32"
        }
      ],
      "stateMutability": "view",
      "type": "function",
      "constant": true
    },
    {
      "inputs": [
        {
          "internalType": "bytes32",
          "name": "role",
          "type": "bytes32"
        },
        {
          "internalType": "uint256",
          "name": "index",
          "type": "uint256"
        }
      ],
      "name": "getRoleMember",
      "outputs": [
        {
          "internalType": "address",
          "name": "",
          "type": "address"
        }
      ],
      "stateMutability": "view",
      "type": "function",
      "constant": true
    },
    {
      "inputs": [
        {
          "internalType": "bytes32",
          "name": "role",
          "type": "bytes32"
        }
      ],
      "name": "getRoleMemberCount",
      "outputs": [
        {
          "internalType": "uint256",
          "name": "",
          "type": "uint256"
        }
      ],
      "stateMutability": "view",
      "type": "function",
      "constant": true
    },
    {
      "inputs": [
        {
          "internalType": "uint256",
          "name": "",
          "type": "uint256"
        }
      ],
      "name": "guitars",
      "outputs": [
        {
          "internalType": "string",
          "name": "model",
          "type": "string"
        },
        {
          "internalType": "uint256",
          "name": "price",
          "type": "uint256"
        },
        {
          "internalType": "uint256",
          "name": "serial",
          "type": "uint256"
        },
        {
          "internalType": "address payable",
          "name": "factory",
          "type": "address"
        },
        {
          "internalType": "bool",
          "name": "isNew",
          "type": "bool"
        },
        {
          "internalType": "bool",
          "name": "forSale",
          "type": "bool"
        }
      ],
      "stateMutability": "view",
      "type": "function",
      "constant": true
    },
    {
      "inputs": [
        {
          "internalType": "bytes32",
          "name": "role",
          "type": "bytes32"
        },
        {
          "internalType": "address",
          "name": "account",
          "type": "address"
        }
      ],
      "name": "hasRole",
      "outputs": [
        {
          "internalType": "bool",
          "name": "",
          "type": "bool"
        }
      ],
      "stateMutability": "view",
      "type": "function",
      "constant": true
    },
    {
      "inputs": [
        {
          "internalType": "address",
          "name": "owner",
          "type": "address"
        },
        {
          "internalType": "address",
          "name": "operator",
          "type": "address"
        }
      ],
      "name": "isApprovedForAll",
      "outputs": [
        {
          "internalType": "bool",
          "name": "",
          "type": "bool"
        }
      ],
      "stateMutability": "view",
      "type": "function",
      "constant": true
    },
    {
      "inputs": [],
      "name": "name",
      "outputs": [
        {
          "internalType": "string",
          "name": "",
          "type": "string"
        }
      ],
      "stateMutability": "view",
      "type": "function",
      "constant": true
    },
    {
      "inputs": [],
      "name": "owner",
      "outputs": [
        {
          "internalType": "address",
          "name": "",
          "type": "address"
        }
      ],
      "stateMutability": "view",
      "type": "function",
      "constant": true
    },
    {
      "inputs": [
        {
          "internalType": "uint256",
          "name": "tokenId",
          "type": "uint256"
        }
      ],
      "name": "ownerOf",
      "outputs": [
        {
          "internalType": "address",
          "name": "",
          "type": "address"
        }
      ],
      "stateMutability": "view",
      "type": "function",
      "constant": true
    },
    {
      "inputs": [],
      "name": "renounceOwnership",
      "outputs": [],
      "stateMutability": "nonpayable",
      "type": "function"
    },
    {
      "inputs": [
        {
          "internalType": "bytes32",
          "name": "role",
          "type": "bytes32"
        },
        {
          "internalType": "address",
          "name": "account",
          "type": "address"
        }
      ],
      "name": "renounceRole",
      "outputs": [],
      "stateMutability": "nonpayable",
      "type": "function"
    },
    {
      "inputs": [
        {
          "internalType": "address",
          "name": "from",
          "type": "address"
        },
        {
          "internalType": "address",
          "name": "to",
          "type": "address"
        },
        {
          "internalType": "uint256",
          "name": "tokenId",
          "type": "uint256"
        }
      ],
      "name": "safeTransferFrom",
      "outputs": [],
      "stateMutability": "nonpayable",
      "type": "function"
    },
    {
      "inputs": [
        {
          "internalType": "address",
          "name": "from",
          "type": "address"
        },
        {
          "internalType": "address",
          "name": "to",
          "type": "address"
        },
        {
          "internalType": "uint256",
          "name": "tokenId",
          "type": "uint256"
        },
        {
          "internalType": "bytes",
          "name": "_data",
          "type": "bytes"
        }
      ],
      "name": "safeTransferFrom",
      "outputs": [],
      "stateMutability": "nonpayable",
      "type": "function"
    },
    {
      "inputs": [
        {
          "internalType": "address",
          "name": "operator",
          "type": "address"
        },
        {
          "internalType": "bool",
          "name": "approved",
          "type": "bool"
        }
      ],
      "name": "setApprovalForAll",
      "outputs": [],
      "stateMutability": "nonpayable",
      "type": "function"
    },
    {
      "inputs": [
        {
          "internalType": "bytes4",
          "name": "interfaceId",
          "type": "bytes4"
        }
      ],
      "name": "supportsInterface",
      "outputs": [
        {
          "internalType": "bool",
          "name": "",
          "type": "bool"
        }
      ],
      "stateMutability": "view",
      "type": "function",
      "constant": true
    },
    {
      "inputs": [],
      "name": "symbol",
      "outputs": [
        {
          "internalType": "string",
          "name": "",
          "type": "string"
        }
      ],
      "stateMutability": "view",
      "type": "function",
      "constant": true
    },
    {
      "inputs": [
        {
          "internalType": "uint256",
          "name": "index",
          "type": "uint256"
        }
      ],
      "name": "tokenByIndex",
      "outputs": [
        {
          "internalType": "uint256",
          "name": "",
          "type": "uint256"
        }
      ],
      "stateMutability": "view",
      "type": "function",
      "constant": true
    },
    {
      "inputs": [
        {
          "internalType": "address",
          "name": "owner",
          "type": "address"
        },
        {
          "internalType": "uint256",
          "name": "index",
          "type": "uint256"
        }
      ],
      "name": "tokenOfOwnerByIndex",
      "outputs": [
        {
          "internalType": "uint256",
          "name": "",
          "type": "uint256"
        }
      ],
      "stateMutability": "view",
      "type": "function",
      "constant": true
    },
    {
      "inputs": [
        {
          "internalType": "uint256",
          "name": "tokenId",
          "type": "uint256"
        }
      ],
      "name": "tokenURI",
      "outputs": [
        {
          "internalType": "string",
          "name": "",
          "type": "string"
        }
      ],
      "stateMutability": "view",
      "type": "function",
      "constant": true
    },
    {
      "inputs": [],
      "name": "totalSupply",
      "outputs": [
        {
          "internalType": "uint256",
          "name": "",
          "type": "uint256"
        }
      ],
      "stateMutability": "view",
      "type": "function",
      "constant": true
    },
    {
      "inputs": [
        {
          "internalType": "address",
          "name": "from",
          "type": "address"
        },
        {
          "internalType": "address",
          "name": "to",
          "type": "address"
        },
        {
          "internalType": "uint256",
          "name": "tokenId",
          "type": "uint256"
        }
      ],
      "name": "transferFrom",
      "outputs": [],
      "stateMutability": "nonpayable",
      "type": "function"
    },
    {
      "inputs": [
        {
          "internalType": "address",
          "name": "newOwner",
          "type": "address"
        }
      ],
      "name": "transferOwnership",
      "outputs": [],
      "stateMutability": "nonpayable",
      "type": "function"
    },
    {
      "inputs": [
        {
          "internalType": "bytes32",
          "name": "role",
          "type": "bytes32"
        },
        {
          "internalType": "address",
          "name": "account",
          "type": "address"
        }
      ],
      "name": "grantRole",
      "outputs": [],
      "stateMutability": "nonpayable",
      "type": "function"
    },
    {
      "inputs": [
        {
          "internalType": "bytes32",
          "name": "role",
          "type": "bytes32"
        },
        {
          "internalType": "address",
          "name": "account",
          "type": "address"
        }
      ],
      "name": "revokeRole",
      "outputs": [],
      "stateMutability": "nonpayable",
      "type": "function"
    },
    {
      "inputs": [
        {
          "internalType": "uint256",
          "name": "_serial",
          "type": "uint256"
        }
      ],
      "name": "guitarData",
      "outputs": [
        {
          "internalType": "string",
          "name": "",
          "type": "string"
        },
        {
          "internalType": "uint256",
          "name": "",
          "type": "uint256"
        },
        {
          "internalType": "uint256",
          "name": "",
          "type": "uint256"
        },
        {
          "internalType": "address",
          "name": "",
          "type": "address"
        },
        {
          "internalType": "bool",
          "name": "",
          "type": "bool"
        },
        {
          "internalType": "bool",
          "name": "",
          "type": "bool"
        }
      ],
      "stateMutability": "view",
      "type": "function",
      "constant": true
    },
    {
      "inputs": [
        {
          "internalType": "string",
          "name": "_model",
          "type": "string"
        },
        {
          "internalType": "uint256",
          "name": "_price",
          "type": "uint256"
        }
      ],
      "name": "mintGuitar",
      "outputs": [],
      "stateMutability": "nonpayable",
      "type": "function"
    },
    {
      "inputs": [
        {
          "internalType": "uint256",
          "name": "_serial",
          "type": "uint256"
        },
        {
          "internalType": "uint256",
          "name": "_newPrice",
          "type": "uint256"
        }
      ],
      "name": "changePrice",
      "outputs": [],
      "stateMutability": "nonpayable",
      "type": "function"
    },
    {
      "inputs": [
        {
          "internalType": "uint256",
          "name": "_serial",
          "type": "uint256"
        }
      ],
      "name": "changeSaleStatus",
      "outputs": [],
      "stateMutability": "nonpayable",
      "type": "function"
    }
  ],
  "bytecode": "0x60806040523480156200001157600080fd5b506040516200538838038062005388833981810160405260408110156200003757600080fd5b81019080805160405193929190846401000000008211156200005857600080fd5b838201915060208201858111156200006f57600080fd5b82518660018202830111640100000000821117156200008d57600080fd5b8083526020830192505050908051906020019080838360005b83811015620000c3578082015181840152602081019050620000a6565b50505050905090810190601f168015620000f15780820380516001836020036101000a031916815260200191505b50604052602001805160405193929190846401000000008211156200011557600080fd5b838201915060208201858111156200012c57600080fd5b82518660018202830111640100000000821117156200014a57600080fd5b8083526020830192505050908051906020019080838360005b838110156200018057808201518184015260208101905062000163565b50505050905090810190601f168015620001ae5780820380516001836020036101000a031916815260200191505b5060405250505081816000620001c96200046f60201b60201c565b9050806000806101000a81548173ffffffffffffffffffffffffffffffffffffffff021916908373ffffffffffffffffffffffffffffffffffffffff1602179055508073ffffffffffffffffffffffffffffffffffffffff16600073ffffffffffffffffffffffffffffffffffffffff167f8be0079c531659141344cd1fd0a4f28419497f9722a3daafe3b4186f6b6457e060405160405180910390a3506200027f6301ffc9a760e01b6200047760201b60201c565b8160089080519060200190620002979291906200079d565b508060099080519060200190620002b09291906200079d565b50620002c96380ac58cd60e01b6200047760201b60201c565b620002e1635b5e139f60e01b6200047760201b60201c565b620002f963780e9d6360e01b6200047760201b60201c565b50506200030b6200058160201b60201c565b600c60006101000a81548173ffffffffffffffffffffffffffffffffffffffff021916908373ffffffffffffffffffffffffffffffffffffffff160217905550620003826000801b600c60009054906101000a900473ffffffffffffffffffffffffffffffffffffffff16620005aa60201b60201c565b620003eb60405180807f464143544f52590000000000000000000000000000000000000000000000000081525060070190506040518091039020600c60009054906101000a900473ffffffffffffffffffffffffffffffffffffffff16620005aa60201b60201c565b6200046760405180807f4445414c455200000000000000000000000000000000000000000000000000008152506006019050604051809103902060405180807f464143544f52590000000000000000000000000000000000000000000000000081525060070190506040518091039020620005c060201b60201c565b50506200084c565b600033905090565b63ffffffff60e01b817bffffffffffffffffffffffffffffffffffffffffffffffffffffffff1916141562000514576040517f08c379a000000000000000000000000000000000000000000000000000000000815260040180806020018281038252601c8152602001807f4552433136353a20696e76616c696420696e746572666163652069640000000081525060200191505060405180910390fd5b600160026000837bffffffffffffffffffffffffffffffffffffffffffffffffffffffff19167bffffffffffffffffffffffffffffffffffffffffffffffffffffffff1916815260200190815260200160002060006101000a81548160ff02191690831515021790555050565b60008060009054906101000a900473ffffffffffffffffffffffffffffffffffffffff16905090565b620005bc82826200062460201b60201c565b5050565b806001600084815260200190815260200160002060020154837fbd79b86ffe0ab8e8776151514217cd7cacd52c909f66475c3af44e129f0b00ff60405160405180910390a48060016000848152602001908152602001600020600201819055505050565b620006538160016000858152602001908152602001600020600001620006c860201b620042ff1790919060201c565b15620006c457620006696200046f60201b60201c565b73ffffffffffffffffffffffffffffffffffffffff168173ffffffffffffffffffffffffffffffffffffffff16837f2f8788117e7eff1d82e926ec794901d17c78024a50270940304540a733656f0d60405160405180910390a45b5050565b6000620006f8836000018373ffffffffffffffffffffffffffffffffffffffff1660001b6200070060201b60201c565b905092915050565b60006200071483836200077a60201b60201c565b6200076f57826000018290806001815401808255809150506001900390600052602060002001600090919091909150558260000180549050836001016000848152602001908152602001600020819055506001905062000774565b600090505b92915050565b600080836001016000848152602001908152602001600020541415905092915050565b828054600181600116156101000203166002900490600052602060002090601f016020900481019282601f10620007e057805160ff191683800117855562000811565b8280016001018555821562000811579182015b8281111562000810578251825591602001919060010190620007f3565b5b50905062000820919062000824565b5090565b6200084991905b80821115620008455760008160009055506001016200082b565b5090565b90565b614b2c806200085c6000396000f3fe608060405234801561001057600080fd5b50600436106102325760003560e01c80636c0360eb11610130578063b3de019c116100b8578063d547741f1161007c578063d547741f14610f07578063e7c4a28c14610f55578063e7f41cf01461101a578063e985e9c514611088578063f2fde38b1461110457610232565b8063b3de019c14610be3578063b88d4fde14610c1b578063c5e9265314610d20578063c87b56dd14610e1e578063ca15c87314610ec557610232565b80639010d07c116100ff5780639010d07c14610a1457806391d1485414610a8c57806395d89b4114610af2578063a217fddf14610b75578063a22cb46514610b9357610232565b80636c0360eb146108e557806370a0823114610968578063715018a6146109c05780638da5cb5b146109ca57610232565b80632f2ff15d116101be57806342842e0e1161018257806342842e0e1461072b5780634710ca86146107995780634f6ccce7146107c75780636352211e14610809578063672383c41461087757610232565b80632f2ff15d146105c55780632f745c591461061357806336568abe146106755780633ec6952a146106c35780634056845a1461070d57610232565b806318160ddd1161020557806318160ddd146103db5780631c03cda6146103f957806323b872dd146104f7578063248a9ca3146105655780632dd31000146105a757610232565b806301ffc9a71461023757806306fdde031461029c578063081812fc1461031f578063095ea7b31461038d575b600080fd5b6102826004803603602081101561024d57600080fd5b8101908080357bffffffffffffffffffffffffffffffffffffffffffffffffffffffff19169060200190929190505050611148565b604051808215151515815260200191505060405180910390f35b6102a46111b0565b6040518080602001828103825283818151815260200191508051906020019080838360005b838110156102e45780820151818401526020810190506102c9565b50505050905090810190601f1680156103115780820380516001836020036101000a031916815260200191505b509250505060405180910390f35b61034b6004803603602081101561033557600080fd5b8101908080359060200190929190505050611252565b604051808273ffffffffffffffffffffffffffffffffffffffff1673ffffffffffffffffffffffffffffffffffffffff16815260200191505060405180910390f35b6103d9600480360360408110156103a357600080fd5b81019080803573ffffffffffffffffffffffffffffffffffffffff169060200190929190803590602001909291905050506112ed565b005b6103e3611431565b6040518082815260200191505060405180910390f35b6104256004803603602081101561040f57600080fd5b8101908080359060200190929190505050611442565b60405180806020018781526020018681526020018573ffffffffffffffffffffffffffffffffffffffff1673ffffffffffffffffffffffffffffffffffffffff1681526020018415151515815260200183151515158152602001828103825288818151815260200191508051906020019080838360005b838110156104b757808201518184015260208101905061049c565b50505050905090810190601f1680156104e45780820380516001836020036101000a031916815260200191505b5097505050505050505060405180910390f35b6105636004803603606081101561050d57600080fd5b81019080803573ffffffffffffffffffffffffffffffffffffffff169060200190929190803573ffffffffffffffffffffffffffffffffffffffff1690602001909291908035906020019092919050505061155d565b005b6105916004803603602081101561057b57600080fd5b81019080803590602001909291905050506115d3565b6040518082815260200191505060405180910390f35b6105af6115f3565b6040518082815260200191505060405180910390f35b610611600480360360408110156105db57600080fd5b8101908080359060200190929190803573ffffffffffffffffffffffffffffffffffffffff16906020019092919050505061162c565b005b61065f6004803603604081101561062957600080fd5b81019080803573ffffffffffffffffffffffffffffffffffffffff1690602001909291908035906020019092919050505061173c565b6040518082815260200191505060405180910390f35b6106c16004803603604081101561068b57600080fd5b8101908080359060200190929190803573ffffffffffffffffffffffffffffffffffffffff169060200190929190505050611797565b005b6106cb611830565b604051808273ffffffffffffffffffffffffffffffffffffffff1673ffffffffffffffffffffffffffffffffffffffff16815260200191505060405180910390f35b610715611856565b6040518082815260200191505060405180910390f35b6107976004803603606081101561074157600080fd5b81019080803573ffffffffffffffffffffffffffffffffffffffff169060200190929190803573ffffffffffffffffffffffffffffffffffffffff1690602001909291908035906020019092919050505061188f565b005b6107c5600480360360208110156107af57600080fd5b81019080803590602001909291905050506118af565b005b6107f3600480360360208110156107dd57600080fd5b8101908080359060200190929190505050611ac4565b6040518082815260200191505060405180910390f35b6108356004803603602081101561081f57600080fd5b8101908080359060200190929190505050611ae7565b604051808273ffffffffffffffffffffffffffffffffffffffff1673ffffffffffffffffffffffffffffffffffffffff16815260200191505060405180910390f35b6108a36004803603602081101561088d57600080fd5b8101908080359060200190929190505050611b1e565b604051808273ffffffffffffffffffffffffffffffffffffffff1673ffffffffffffffffffffffffffffffffffffffff16815260200191505060405180910390f35b6108ed611b5a565b6040518080602001828103825283818151815260200191508051906020019080838360005b8381101561092d578082015181840152602081019050610912565b50505050905090810190601f16801561095a5780820380516001836020036101000a031916815260200191505b509250505060405180910390f35b6109aa6004803603602081101561097e57600080fd5b81019080803573ffffffffffffffffffffffffffffffffffffffff169060200190929190505050611bfc565b6040518082815260200191505060405180910390f35b6109c8611cd1565b005b6109d2611e59565b604051808273ffffffffffffffffffffffffffffffffffffffff1673ffffffffffffffffffffffffffffffffffffffff16815260200191505060405180910390f35b610a4a60048036036040811015610a2a57600080fd5b810190808035906020019092919080359060200190929190505050611e82565b604051808273ffffffffffffffffffffffffffffffffffffffff1673ffffffffffffffffffffffffffffffffffffffff16815260200191505060405180910390f35b610ad860048036036040811015610aa257600080fd5b8101908080359060200190929190803573ffffffffffffffffffffffffffffffffffffffff169060200190929190505050611eb4565b604051808215151515815260200191505060405180910390f35b610afa611ee6565b6040518080602001828103825283818151815260200191508051906020019080838360005b83811015610b3a578082015181840152602081019050610b1f565b50505050905090810190601f168015610b675780820380516001836020036101000a031916815260200191505b509250505060405180910390f35b610b7d611f88565b6040518082815260200191505060405180910390f35b610be160048036036040811015610ba957600080fd5b81019080803573ffffffffffffffffffffffffffffffffffffffff169060200190929190803515159060200190929190505050611f8f565b005b610c1960048036036040811015610bf957600080fd5b810190808035906020019092919080359060200190929190505050612147565b005b610d1e60048036036080811015610c3157600080fd5b81019080803573ffffffffffffffffffffffffffffffffffffffff169060200190929190803573ffffffffffffffffffffffffffffffffffffffff1690602001909291908035906020019092919080359060200190640100000000811115610c9857600080fd5b820183602082011115610caa57600080fd5b80359060200191846001830284011164010000000083111715610ccc57600080fd5b91908080601f016020809104026020016040519081016040528093929190818152602001838380828437600081840152601f19601f8201169050808301925050505050505091929192905050506123cc565b005b610d4c60048036036020811015610d3657600080fd5b8101908080359060200190929190505050612444565b60405180806020018781526020018681526020018573ffffffffffffffffffffffffffffffffffffffff1673ffffffffffffffffffffffffffffffffffffffff1681526020018415151515815260200183151515158152602001828103825288818151815260200191508051906020019080838360005b83811015610dde578082015181840152602081019050610dc3565b50505050905090810190601f168015610e0b5780820380516001836020036101000a031916815260200191505b5097505050505050505060405180910390f35b610e4a60048036036020811015610e3457600080fd5b8101908080359060200190929190505050612686565b6040518080602001828103825283818151815260200191508051906020019080838360005b83811015610e8a578082015181840152602081019050610e6f565b50505050905090810190601f168015610eb75780820380516001836020036101000a031916815260200191505b509250505060405180910390f35b610ef160048036036020811015610edb57600080fd5b810190808035906020019092919050505061296f565b6040518082815260200191505060405180910390f35b610f5360048036036040811015610f1d57600080fd5b8101908080359060200190929190803573ffffffffffffffffffffffffffffffffffffffff169060200190929190505050612996565b005b61101860048036036040811015610f6b57600080fd5b8101908080359060200190640100000000811115610f8857600080fd5b820183602082011115610f9a57600080fd5b80359060200191846001830284011164010000000083111715610fbc57600080fd5b91908080601f016020809104026020016040519081016040528093929190818152602001838380828437600081840152601f19601f82011690508083019250505050505050919291929080359060200190929190505050612aa6565b005b6110466004803603602081101561103057600080fd5b8101908080359060200190929190505050612d72565b604051808273ffffffffffffffffffffffffffffffffffffffff1673ffffffffffffffffffffffffffffffffffffffff16815260200191505060405180910390f35b6110ea6004803603604081101561109e57600080fd5b81019080803573ffffffffffffffffffffffffffffffffffffffff169060200190929190803573ffffffffffffffffffffffffffffffffffffffff169060200190929190505050612dae565b604051808215151515815260200191505060405180910390f35b6111466004803603602081101561111a57600080fd5b81019080803573ffffffffffffffffffffffffffffffffffffffff169060200190929190505050612e42565b005b600060026000837bffffffffffffffffffffffffffffffffffffffffffffffffffffffff19167bffffffffffffffffffffffffffffffffffffffffffffffffffffffff1916815260200190815260200160002060009054906101000a900460ff169050919050565b606060088054600181600116156101000203166002900480601f0160208091040260200160405190810160405280929190818152602001828054600181600116156101000203166002900480156112485780601f1061121d57610100808354040283529160200191611248565b820191906000526020600020905b81548152906001019060200180831161122b57829003601f168201915b5050505050905090565b600061125d8261304f565b6112b2576040517f08c379a000000000000000000000000000000000000000000000000000000000815260040180806020018281038252602c8152602001806149f2602c913960400191505060405180910390fd5b6006600083815260200190815260200160002060009054906101000a900473ffffffffffffffffffffffffffffffffffffffff169050919050565b60006112f882611ae7565b90508073ffffffffffffffffffffffffffffffffffffffff168373ffffffffffffffffffffffffffffffffffffffff16141561137f576040517f08c379a0000000000000000000000000000000000000000000000000000000008152600401808060200182810382526021815260200180614a766021913960400191505060405180910390fd5b8073ffffffffffffffffffffffffffffffffffffffff1661139e61306c565b73ffffffffffffffffffffffffffffffffffffffff1614806113cd57506113cc816113c761306c565b612dae565b5b611422576040517f08c379a00000000000000000000000000000000000000000000000000000000081526004018080602001828103825260388152602001806149456038913960400191505060405180910390fd5b61142c8383613074565b505050565b600061143d600461312d565b905090565b600f818154811061144f57fe5b9060005260206000209060040201600091509050806000018054600181600116156101000203166002900480601f0160208091040260200160405190810160405280929190818152602001828054600181600116156101000203166002900480156114fb5780601f106114d0576101008083540402835291602001916114fb565b820191906000526020600020905b8154815290600101906020018083116114de57829003601f168201915b5050505050908060010154908060020154908060030160009054906101000a900473ffffffffffffffffffffffffffffffffffffffff16908060030160149054906101000a900460ff16908060030160159054906101000a900460ff16905086565b61156e61156861306c565b82613142565b6115c3576040517f08c379a0000000000000000000000000000000000000000000000000000000008152600401808060200182810382526031815260200180614a976031913960400191505060405180910390fd5b6115ce838383613236565b505050565b600060016000838152602001908152602001600020600201549050919050565b60405180807f464143544f5259000000000000000000000000000000000000000000000000008152506007019050604051809103902081565b6116368282613479565b8160405180807f464143544f5259000000000000000000000000000000000000000000000000008152506007019050604051809103902014156116b7578073ffffffffffffffffffffffffffffffffffffffff167fa9a8b2f8fb6763e00282add661bca3f2b49006e30222824c36a47a3de1f6b25860405160405180910390a25b8160405180807f4445414c45520000000000000000000000000000000000000000000000000000815250600601905060405180910390201415611738578073ffffffffffffffffffffffffffffffffffffffff167f55b8b14f54496759058770a8c7e52a71c6efc37767e7d6c2afe1f2e1fcebf95260405160405180910390a25b5050565b600061178f82600360008673ffffffffffffffffffffffffffffffffffffffff1673ffffffffffffffffffffffffffffffffffffffff16815260200190815260200160002061350390919063ffffffff16565b905092915050565b61179f61306c565b73ffffffffffffffffffffffffffffffffffffffff168173ffffffffffffffffffffffffffffffffffffffff1614611822576040517f08c379a000000000000000000000000000000000000000000000000000000000815260040180806020018281038252602f815260200180614ac8602f913960400191505060405180910390fd5b61182c828261351d565b5050565b600c60009054906101000a900473ffffffffffffffffffffffffffffffffffffffff1681565b60405180807f4445414c455200000000000000000000000000000000000000000000000000008152506006019050604051809103902081565b6118aa838383604051806020016040528060008152506123cc565b505050565b806000811180156118c757506118c3611431565b8111155b611939576040517f08c379a00000000000000000000000000000000000000000000000000000000081526004018080602001828103825260168152602001807f47756974617220646f6573206e6f74206578697374210000000000000000000081525060200191505060405180910390fd5b813373ffffffffffffffffffffffffffffffffffffffff1661195a82611ae7565b73ffffffffffffffffffffffffffffffffffffffff16146119c6576040517f08c379a000000000000000000000000000000000000000000000000000000000815260040180806020018281038252602281526020018061484b6022913960400191505060405180910390fd5b60006119dc6001856135b190919063ffffffff16565b9050600f81815481106119eb57fe5b906000526020600020906004020160030160159054906101000a900460ff1615600f8281548110611a1857fe5b906000526020600020906004020160030160156101000a81548160ff0219169083151502179055503373ffffffffffffffffffffffffffffffffffffffff16847fb9267a0b93c34efc6e914a393e6238661c0eaef0eb51932ee122c0b0e1e45d0f600f8481548110611a8657fe5b906000526020600020906004020160030160159054906101000a900460ff16604051808215151515815260200191505060405180910390a350505050565b600080611adb8360046135fb90919063ffffffff16565b50905080915050919050565b6000611b17826040518060600160405280602981526020016149a760299139600461362a9092919063ffffffff16565b9050919050565b600d8181548110611b2b57fe5b906000526020600020016000915054906101000a900473ffffffffffffffffffffffffffffffffffffffff1681565b6060600b8054600181600116156101000203166002900480601f016020809104026020016040519081016040528092919081815260200182805460018160011615610100020316600290048015611bf25780601f10611bc757610100808354040283529160200191611bf2565b820191906000526020600020905b815481529060010190602001808311611bd557829003601f168201915b5050505050905090565b60008073ffffffffffffffffffffffffffffffffffffffff168273ffffffffffffffffffffffffffffffffffffffff161415611c83576040517f08c379a000000000000000000000000000000000000000000000000000000000815260040180806020018281038252602a81526020018061497d602a913960400191505060405180910390fd5b611cca600360008473ffffffffffffffffffffffffffffffffffffffff1673ffffffffffffffffffffffffffffffffffffffff168152602001908152602001600020613649565b9050919050565b611cd961306c565b73ffffffffffffffffffffffffffffffffffffffff166000809054906101000a900473ffffffffffffffffffffffffffffffffffffffff1673ffffffffffffffffffffffffffffffffffffffff1614611d9a576040517f08c379a00000000000000000000000000000000000000000000000000000000081526004018080602001828103825260208152602001807f4f776e61626c653a2063616c6c6572206973206e6f7420746865206f776e657281525060200191505060405180910390fd5b600073ffffffffffffffffffffffffffffffffffffffff166000809054906101000a900473ffffffffffffffffffffffffffffffffffffffff1673ffffffffffffffffffffffffffffffffffffffff167f8be0079c531659141344cd1fd0a4f28419497f9722a3daafe3b4186f6b6457e060405160405180910390a360008060006101000a81548173ffffffffffffffffffffffffffffffffffffffff021916908373ffffffffffffffffffffffffffffffffffffffff160217905550565b60008060009054906101000a900473ffffffffffffffffffffffffffffffffffffffff16905090565b6000611eac826001600086815260200190815260200160002060000161365e90919063ffffffff16565b905092915050565b6000611ede826001600086815260200190815260200160002060000161367890919063ffffffff16565b905092915050565b606060098054600181600116156101000203166002900480601f016020809104026020016040519081016040528092919081815260200182805460018160011615610100020316600290048015611f7e5780601f10611f5357610100808354040283529160200191611f7e565b820191906000526020600020905b815481529060010190602001808311611f6157829003601f168201915b5050505050905090565b6000801b81565b611f9761306c565b73ffffffffffffffffffffffffffffffffffffffff168273ffffffffffffffffffffffffffffffffffffffff161415612038576040517f08c379a00000000000000000000000000000000000000000000000000000000081526004018080602001828103825260198152602001807f4552433732313a20617070726f766520746f2063616c6c65720000000000000081525060200191505060405180910390fd5b806007600061204561306c565b73ffffffffffffffffffffffffffffffffffffffff1673ffffffffffffffffffffffffffffffffffffffff16815260200190815260200160002060008473ffffffffffffffffffffffffffffffffffffffff1673ffffffffffffffffffffffffffffffffffffffff16815260200190815260200160002060006101000a81548160ff0219169083151502179055508173ffffffffffffffffffffffffffffffffffffffff166120f261306c565b73ffffffffffffffffffffffffffffffffffffffff167f17307eab39ab6107e8899845ad3d59bd9653f200f220920489ca2b5937696c3183604051808215151515815260200191505060405180910390a35050565b8160008111801561215f575061215b611431565b8111155b6121d1576040517f08c379a00000000000000000000000000000000000000000000000000000000081526004018080602001828103825260168152602001807f47756974617220646f6573206e6f74206578697374210000000000000000000081525060200191505060405180910390fd5b823373ffffffffffffffffffffffffffffffffffffffff166121f282611ae7565b73ffffffffffffffffffffffffffffffffffffffff161461225e576040517f08c379a000000000000000000000000000000000000000000000000000000000815260040180806020018281038252602281526020018061484b6022913960400191505060405180910390fd5b60018301831080156122705750600083115b61227957600080fd5b82600f6122906001876135b190919063ffffffff16565b8154811061229a57fe5b9060005260206000209060040201600101541415612320576040517f08c379a00000000000000000000000000000000000000000000000000000000081526004018080602001828103825260158152602001807f507269636520686173206e6f74206368616e676564000000000000000000000081525060200191505060405180910390fd5b6000600f6123386001876135b190919063ffffffff16565b8154811061234257fe5b906000526020600020906004020160010154905083600f61236d6001886135b190919063ffffffff16565b8154811061237757fe5b90600052602060002090600402016001018190555083857f3d1d533a9d3773ed7f00ba6435b0cbea2d9603b10c077893ea918452d5c9818f836040518082815260200191505060405180910390a35050505050565b6123dd6123d761306c565b83613142565b612432576040517f08c379a0000000000000000000000000000000000000000000000000000000008152600401808060200182810382526031815260200180614a976031913960400191505060405180910390fd5b61243e848484846136a8565b50505050565b60606000806000806000866000811180156124665750612462611431565b8111155b6124d8576040517f08c379a00000000000000000000000000000000000000000000000000000000081526004018080602001828103825260168152602001807f47756974617220646f6573206e6f74206578697374210000000000000000000081525060200191505060405180910390fd5b600188039750600f88815481106124eb57fe5b9060005260206000209060040201600001600f898154811061250957fe5b906000526020600020906004020160010154600f8a8154811061252857fe5b906000526020600020906004020160020154600f8b8154811061254757fe5b906000526020600020906004020160030160009054906101000a900473ffffffffffffffffffffffffffffffffffffffff16600f8c8154811061258657fe5b906000526020600020906004020160030160149054906101000a900460ff16600f8d815481106125b257fe5b906000526020600020906004020160030160159054906101000a900460ff16858054600181600116156101000203166002900480601f0160208091040260200160405190810160405280929190818152602001828054600181600116156101000203166002900480156126665780601f1061263b57610100808354040283529160200191612666565b820191906000526020600020905b81548152906001019060200180831161264957829003601f168201915b505050505095508292509650965096509650965096505091939550919395565b60606126918261304f565b6126e6576040517f08c379a000000000000000000000000000000000000000000000000000000000815260040180806020018281038252602f815260200180614a47602f913960400191505060405180910390fd5b6060600a60008481526020019081526020016000208054600181600116156101000203166002900480601f01602080910402602001604051908101604052809291908181526020018280546001816001161561010002031660029004801561278f5780601f106127645761010080835404028352916020019161278f565b820191906000526020600020905b81548152906001019060200180831161277257829003601f168201915b505050505090506000600b80546001816001161561010002031660029004905014156127be578091505061296a565b60008151111561289757600b8160405160200180838054600181600116156101000203166002900480156128295780601f10612807576101008083540402835291820191612829565b820191906000526020600020905b815481529060010190602001808311612815575b505082805190602001908083835b6020831061285a5780518252602082019150602081019050602083039250612837565b6001836020036101000a0380198251168184511680821785525050505050509050019250505060405160208183030381529060405291505061296a565b600b6128a28461371a565b60405160200180838054600181600116156101000203166002900480156129005780601f106128de576101008083540402835291820191612900565b820191906000526020600020905b8154815290600101906020018083116128ec575b505082805190602001908083835b60208310612931578051825260208201915060208101905060208303925061290e565b6001836020036101000a038019825116818451168082178552505050505050905001925050506040516020818303038152906040529150505b919050565b600061298f6001600084815260200190815260200160002060000161384a565b9050919050565b6129a0828261385f565b8160405180807f464143544f525900000000000000000000000000000000000000000000000000815250600701905060405180910390201415612a21578073ffffffffffffffffffffffffffffffffffffffff167f3da488d26baed03bfd5d0a645650fd957647aad20d0a1b1194b35945a40584cc60405160405180910390a25b8160405180807f4445414c45520000000000000000000000000000000000000000000000000000815250600601905060405180910390201415612aa2578073ffffffffffffffffffffffffffffffffffffffff167fa82180c347ed5391b5761215e417f72356a2881abf4b71699c8e76cbd2773a9860405160405180910390a25b5050565b612ae560405180807f464143544f5259000000000000000000000000000000000000000000000000008152506007019050604051809103902033611eb4565b612b57576040517f08c379a000000000000000000000000000000000000000000000000000000000815260040180806020018281038252601c8152602001807f43616c6c6572206973206e6f742061206d616e7566616374757265720000000081525060200191505060405180910390fd5b6001810181108015612b695750600081115b612b7257600080fd5b6000612b8f6001612b81611431565b6138e990919063ffffffff16565b9050612b9b3382613971565b6000600f9050806040518060c001604052808681526020018581526020018481526020013373ffffffffffffffffffffffffffffffffffffffff1681526020016001151581526020016001151581525090806001815401808255809150506001900390600052602060002090600402016000909190919091506000820151816000019080519060200190612c30929190614754565b50602082015181600101556040820151816002015560608201518160030160006101000a81548173ffffffffffffffffffffffffffffffffffffffff021916908373ffffffffffffffffffffffffffffffffffffffff16021790555060808201518160030160146101000a81548160ff02191690831515021790555060a08201518160030160156101000a81548160ff02191690831515021790555050507f553eb61682b3ac0410eeecefcb06f6776bb852f13b246ce56d61f55230ee78b1826040518082815260200191505060405180910390a13373ffffffffffffffffffffffffffffffffffffffff16600073ffffffffffffffffffffffffffffffffffffffff16837fbacfd126cee076bd28cd01fc19658d23a599204832371c52e7478669373bdc20426040518082815260200191505060405180910390a450505050565b600e8181548110612d7f57fe5b906000526020600020016000915054906101000a900473ffffffffffffffffffffffffffffffffffffffff1681565b6000600760008473ffffffffffffffffffffffffffffffffffffffff1673ffffffffffffffffffffffffffffffffffffffff16815260200190815260200160002060008373ffffffffffffffffffffffffffffffffffffffff1673ffffffffffffffffffffffffffffffffffffffff16815260200190815260200160002060009054906101000a900460ff16905092915050565b612e4a61306c565b73ffffffffffffffffffffffffffffffffffffffff166000809054906101000a900473ffffffffffffffffffffffffffffffffffffffff1673ffffffffffffffffffffffffffffffffffffffff1614612f0b576040517f08c379a00000000000000000000000000000000000000000000000000000000081526004018080602001828103825260208152602001807f4f776e61626c653a2063616c6c6572206973206e6f7420746865206f776e657281525060200191505060405180910390fd5b600073ffffffffffffffffffffffffffffffffffffffff168173ffffffffffffffffffffffffffffffffffffffff161415612f91576040517f08c379a000000000000000000000000000000000000000000000000000000000815260040180806020018281038252602681526020018061489f6026913960400191505060405180910390fd5b8073ffffffffffffffffffffffffffffffffffffffff166000809054906101000a900473ffffffffffffffffffffffffffffffffffffffff1673ffffffffffffffffffffffffffffffffffffffff167f8be0079c531659141344cd1fd0a4f28419497f9722a3daafe3b4186f6b6457e060405160405180910390a3806000806101000a81548173ffffffffffffffffffffffffffffffffffffffff021916908373ffffffffffffffffffffffffffffffffffffffff16021790555050565b600061306582600461398f90919063ffffffff16565b9050919050565b600033905090565b816006600083815260200190815260200160002060006101000a81548173ffffffffffffffffffffffffffffffffffffffff021916908373ffffffffffffffffffffffffffffffffffffffff160217905550808273ffffffffffffffffffffffffffffffffffffffff166130e783611ae7565b73ffffffffffffffffffffffffffffffffffffffff167f8c5be1e5ebec7d5bd14f71427d1e84f3dd0314c0f7b2291e5b200ac8c7c3b92560405160405180910390a45050565b600061313b826000016139a9565b9050919050565b600061314d8261304f565b6131a2576040517f08c379a000000000000000000000000000000000000000000000000000000000815260040180806020018281038252602c8152602001806148e9602c913960400191505060405180910390fd5b60006131ad83611ae7565b90508073ffffffffffffffffffffffffffffffffffffffff168473ffffffffffffffffffffffffffffffffffffffff16148061321c57508373ffffffffffffffffffffffffffffffffffffffff1661320484611252565b73ffffffffffffffffffffffffffffffffffffffff16145b8061322d575061322c8185612dae565b5b91505092915050565b8273ffffffffffffffffffffffffffffffffffffffff1661325682611ae7565b73ffffffffffffffffffffffffffffffffffffffff16146132c2576040517f08c379a0000000000000000000000000000000000000000000000000000000008152600401808060200182810382526029815260200180614a1e6029913960400191505060405180910390fd5b600073ffffffffffffffffffffffffffffffffffffffff168273ffffffffffffffffffffffffffffffffffffffff161415613348576040517f08c379a00000000000000000000000000000000000000000000000000000000081526004018080602001828103825260248152602001806148c56024913960400191505060405180910390fd5b6133538383836139ba565b61335e600082613074565b6133af81600360008673ffffffffffffffffffffffffffffffffffffffff1673ffffffffffffffffffffffffffffffffffffffff1681526020019081526020016000206139bf90919063ffffffff16565b5061340181600360008573ffffffffffffffffffffffffffffffffffffffff1673ffffffffffffffffffffffffffffffffffffffff1681526020019081526020016000206139d990919063ffffffff16565b50613418818360046139f39092919063ffffffff16565b50808273ffffffffffffffffffffffffffffffffffffffff168473ffffffffffffffffffffffffffffffffffffffff167fddf252ad1be2c89b69c2b068fc378daa952ba7f163c4a11628f55a4df523b3ef60405160405180910390a4505050565b6134a0600160008481526020019081526020016000206002015461349b61306c565b611eb4565b6134f5576040517f08c379a000000000000000000000000000000000000000000000000000000000815260040180806020018281038252602f81526020018061481c602f913960400191505060405180910390fd5b6134ff8282613a28565b5050565b60006135128360000183613abc565b60001c905092915050565b6135458160016000858152602001908152602001600020600001613b3f90919063ffffffff16565b156135ad5761355261306c565b73ffffffffffffffffffffffffffffffffffffffff168173ffffffffffffffffffffffffffffffffffffffff16837ff6391f5c32d9c69d2a47ea670b442974b53935d1edc7fd64eb21e047a839171b60405160405180910390a45b5050565b60006135f383836040518060400160405280601e81526020017f536166654d6174683a207375627472616374696f6e206f766572666c6f770000815250613b6f565b905092915050565b60008060008061360e8660000186613c2f565b915091508160001c8160001c8090509350935050509250929050565b600061363d846000018460001b84613cc8565b60001c90509392505050565b600061365782600001613dbe565b9050919050565b600061366d8360000183613abc565b60001c905092915050565b60006136a0836000018373ffffffffffffffffffffffffffffffffffffffff1660001b613dcf565b905092915050565b6136b3848484613236565b6136bf84848484613df2565b613714576040517f08c379a000000000000000000000000000000000000000000000000000000000815260040180806020018281038252603281526020018061486d6032913960400191505060405180910390fd5b50505050565b60606000821415613762576040518060400160405280600181526020017f30000000000000000000000000000000000000000000000000000000000000008152509050613845565b600082905060005b6000821461378c578080600101915050600a828161378457fe5b04915061376a565b6060816040519080825280601f01601f1916602001820160405280156137c15781602001600182028038833980820191505090505b50905060006001830390508593505b6000841461383d57600a84816137e257fe5b0660300160f81b828280600190039350815181106137fc57fe5b60200101907effffffffffffffffffffffffffffffffffffffffffffffffffffffffffffff1916908160001a905350600a848161383557fe5b0493506137d0565b819450505050505b919050565b600061385882600001613dbe565b9050919050565b613886600160008481526020019081526020016000206002015461388161306c565b611eb4565b6138db576040517f08c379a00000000000000000000000000000000000000000000000000000000081526004018080602001828103825260308152602001806149156030913960400191505060405180910390fd5b6138e5828261351d565b5050565b600080828401905083811015613967576040517f08c379a000000000000000000000000000000000000000000000000000000000815260040180806020018281038252601b8152602001807f536166654d6174683a206164646974696f6e206f766572666c6f77000000000081525060200191505060405180910390fd5b8091505092915050565b61398b828260405180602001604052806000815250614037565b5050565b60006139a1836000018360001b6140a8565b905092915050565b600081600001805490509050919050565b505050565b60006139d1836000018360001b6140cb565b905092915050565b60006139eb836000018360001b6141b3565b905092915050565b6000613a1f846000018460001b8473ffffffffffffffffffffffffffffffffffffffff1660001b614223565b90509392505050565b613a5081600160008581526020019081526020016000206000016142ff90919063ffffffff16565b15613ab857613a5d61306c565b73ffffffffffffffffffffffffffffffffffffffff168173ffffffffffffffffffffffffffffffffffffffff16837f2f8788117e7eff1d82e926ec794901d17c78024a50270940304540a733656f0d60405160405180910390a45b5050565b600081836000018054905011613b1d576040517f08c379a00000000000000000000000000000000000000000000000000000000081526004018080602001828103825260228152602001806147fa6022913960400191505060405180910390fd5b826000018281548110613b2c57fe5b9060005260206000200154905092915050565b6000613b67836000018373ffffffffffffffffffffffffffffffffffffffff1660001b6140cb565b905092915050565b6000838311158290613c1c576040517f08c379a00000000000000000000000000000000000000000000000000000000081526004018080602001828103825283818151815260200191508051906020019080838360005b83811015613be1578082015181840152602081019050613bc6565b50505050905090810190601f168015613c0e5780820380516001836020036101000a031916815260200191505b509250505060405180910390fd5b5060008385039050809150509392505050565b60008082846000018054905011613c91576040517f08c379a00000000000000000000000000000000000000000000000000000000081526004018080602001828103825260228152602001806149d06022913960400191505060405180910390fd5b6000846000018481548110613ca257fe5b906000526020600020906002020190508060000154816001015492509250509250929050565b60008084600101600085815260200190815260200160002054905060008114158390613d8f576040517f08c379a00000000000000000000000000000000000000000000000000000000081526004018080602001828103825283818151815260200191508051906020019080838360005b83811015613d54578082015181840152602081019050613d39565b50505050905090810190601f168015613d815780820380516001836020036101000a031916815260200191505b509250505060405180910390fd5b50846000016001820381548110613da257fe5b9060005260206000209060020201600101549150509392505050565b600081600001805490509050919050565b600080836001016000848152602001908152602001600020541415905092915050565b6000613e138473ffffffffffffffffffffffffffffffffffffffff1661432f565b613e20576001905061402f565b6060613fb663150b7a0260e01b613e3561306c565b888787604051602401808573ffffffffffffffffffffffffffffffffffffffff1673ffffffffffffffffffffffffffffffffffffffff1681526020018473ffffffffffffffffffffffffffffffffffffffff1673ffffffffffffffffffffffffffffffffffffffff16815260200183815260200180602001828103825283818151815260200191508051906020019080838360005b83811015613ee5578082015181840152602081019050613eca565b50505050905090810190601f168015613f125780820380516001836020036101000a031916815260200191505b5095505050505050604051602081830303815290604052907bffffffffffffffffffffffffffffffffffffffffffffffffffffffff19166020820180517bffffffffffffffffffffffffffffffffffffffffffffffffffffffff838183161783525050505060405180606001604052806032815260200161486d603291398773ffffffffffffffffffffffffffffffffffffffff166143429092919063ffffffff16565b90506000818060200190516020811015613fcf57600080fd5b8101908080519060200190929190505050905063150b7a0260e01b7bffffffffffffffffffffffffffffffffffffffffffffffffffffffff1916817bffffffffffffffffffffffffffffffffffffffffffffffffffffffff191614925050505b949350505050565b614041838361435a565b61404e6000848484613df2565b6140a3576040517f08c379a000000000000000000000000000000000000000000000000000000000815260040180806020018281038252603281526020018061486d6032913960400191505060405180910390fd5b505050565b600080836001016000848152602001908152602001600020541415905092915050565b600080836001016000848152602001908152602001600020549050600081146141a7576000600182039050600060018660000180549050039050600086600001828154811061411657fe5b906000526020600020015490508087600001848154811061413357fe5b906000526020600020018190555060018301876001016000838152602001908152602001600020819055508660000180548061416b57fe5b600190038181906000526020600020016000905590558660010160008781526020019081526020016000206000905560019450505050506141ad565b60009150505b92915050565b60006141bf8383613dcf565b61421857826000018290806001815401808255809150506001900390600052602060002001600090919091909150558260000180549050836001016000848152602001908152602001600020819055506001905061421d565b600090505b92915050565b60008084600101600085815260200190815260200160002054905060008114156142ca578460000160405180604001604052808681526020018581525090806001815401808255809150506001900390600052602060002090600202016000909190919091506000820151816000015560208201518160010155505084600001805490508560010160008681526020019081526020016000208190555060019150506142f8565b828560000160018303815481106142dd57fe5b90600052602060002090600202016001018190555060009150505b9392505050565b6000614327836000018373ffffffffffffffffffffffffffffffffffffffff1660001b6141b3565b905092915050565b600080823b905060008111915050919050565b6060614351848460008561454e565b90509392505050565b600073ffffffffffffffffffffffffffffffffffffffff168273ffffffffffffffffffffffffffffffffffffffff1614156143fd576040517f08c379a00000000000000000000000000000000000000000000000000000000081526004018080602001828103825260208152602001807f4552433732313a206d696e7420746f20746865207a65726f206164647265737381525060200191505060405180910390fd5b6144068161304f565b15614479576040517f08c379a000000000000000000000000000000000000000000000000000000000815260040180806020018281038252601c8152602001807f4552433732313a20746f6b656e20616c7265616479206d696e7465640000000081525060200191505060405180910390fd5b614485600083836139ba565b6144d681600360008573ffffffffffffffffffffffffffffffffffffffff1673ffffffffffffffffffffffffffffffffffffffff1681526020019081526020016000206139d990919063ffffffff16565b506144ed818360046139f39092919063ffffffff16565b50808273ffffffffffffffffffffffffffffffffffffffff16600073ffffffffffffffffffffffffffffffffffffffff167fddf252ad1be2c89b69c2b068fc378daa952ba7f163c4a11628f55a4df523b3ef60405160405180910390a45050565b60606145598561432f565b6145cb576040517f08c379a000000000000000000000000000000000000000000000000000000000815260040180806020018281038252601d8152602001807f416464726573733a2063616c6c20746f206e6f6e2d636f6e747261637400000081525060200191505060405180910390fd5b600060608673ffffffffffffffffffffffffffffffffffffffff1685876040518082805190602001908083835b6020831061461b57805182526020820191506020810190506020830392506145f8565b6001836020036101000a03801982511681845116808217855250505050505090500191505060006040518083038185875af1925050503d806000811461467d576040519150601f19603f3d011682016040523d82523d6000602084013e614682565b606091505b5091509150811561469757809250505061474c565b6000815111156146aa5780518082602001fd5b836040517f08c379a00000000000000000000000000000000000000000000000000000000081526004018080602001828103825283818151815260200191508051906020019080838360005b838110156147115780820151818401526020810190506146f6565b50505050905090810190601f16801561473e5780820380516001836020036101000a031916815260200191505b509250505060405180910390fd5b949350505050565b828054600181600116156101000203166002900490600052602060002090601f016020900481019282601f1061479557805160ff19168380011785556147c3565b828001600101855582156147c3579182015b828111156147c25782518255916020019190600101906147a7565b5b5090506147d091906147d4565b5090565b6147f691905b808211156147f25760008160009055506001016147da565b5090565b9056fe456e756d657261626c655365743a20696e646578206f7574206f6620626f756e6473416363657373436f6e74726f6c3a2073656e646572206d75737420626520616e2061646d696e20746f206772616e7443616c6c657220697320646f6573206e6f74206f776e2074686973206775697461724552433732313a207472616e7366657220746f206e6f6e20455243373231526563656976657220696d706c656d656e7465724f776e61626c653a206e6577206f776e657220697320746865207a65726f20616464726573734552433732313a207472616e7366657220746f20746865207a65726f20616464726573734552433732313a206f70657261746f7220717565727920666f72206e6f6e6578697374656e7420746f6b656e416363657373436f6e74726f6c3a2073656e646572206d75737420626520616e2061646d696e20746f207265766f6b654552433732313a20617070726f76652063616c6c6572206973206e6f74206f776e6572206e6f7220617070726f76656420666f7220616c6c4552433732313a2062616c616e636520717565727920666f7220746865207a65726f20616464726573734552433732313a206f776e657220717565727920666f72206e6f6e6578697374656e7420746f6b656e456e756d657261626c654d61703a20696e646578206f7574206f6620626f756e64734552433732313a20617070726f76656420717565727920666f72206e6f6e6578697374656e7420746f6b656e4552433732313a207472616e73666572206f6620746f6b656e2074686174206973206e6f74206f776e4552433732314d657461646174613a2055524920717565727920666f72206e6f6e6578697374656e7420746f6b656e4552433732313a20617070726f76616c20746f2063757272656e74206f776e65724552433732313a207472616e736665722063616c6c6572206973206e6f74206f776e6572206e6f7220617070726f766564416363657373436f6e74726f6c3a2063616e206f6e6c792072656e6f756e636520726f6c657320666f722073656c66a26469706673582212202aa98f587abc5738050c78ecabbc2155e1094ba9b8bdb0da9acdd038b5efbe8b64736f6c63430006020033",
  "source": "// SPDX-License-Identifier: FGG\n\npragma solidity ^0.6.2;\n\nimport \"@openzeppelin/contracts/math/SafeMath.sol\";\nimport \"@openzeppelin/contracts/access/Ownable.sol\";\nimport \"@openzeppelin/contracts/access/AccessControl.sol\";\nimport \"@openzeppelin/contracts/token/ERC721/ERC721.sol\";\n\n/**\n * @title GuitarBrand \n * @dev Non-Fungible Token built on ERC721 standard, to create and transfer guitar ownership,\n * the contract represent the NFT for a guitar brand, \n * defines who can create more guitars and set guitar dealers via role assignation.\n * It also works as registry of the guitars made by this brand.\n * @author Fernando Garduo Galaviz\n */\n\ncontract GuitarBrand is Ownable, AccessControl, ERC721{\n    using SafeMath for uint256;\n    \n    address public brandOwner;\n    // List of all the factories for this brand\n    address[] public factories;\n    // List of all the dealers of this guitar brand\n    address[] public dealers;\n    Guitar[] public guitars;\n    \n    /** \n    * @dev Roles' encoding\n    * FACTORY is analog to a minter, they can make new guitars\n    * Only dealers and factories can sell new guitars \n    * Regular owners of a guitar just can sell used guitars\n    */\n    bytes32 public constant FACTORY = keccak256(\"FACTORY\");  \n    bytes32 public constant DEALER = keccak256(\"DEALER\");  \n\n    // Guitar Struct has all the attributes corresponding to token with Id `serial`\n    struct Guitar {\n        string model;\n        uint price;\n        uint serial;\n        address payable factory;\n        bool isNew;\n        bool forSale;\n    }\n\n    /**\n     * Events\n     */\n    event NewGuitarMinted(uint _serial);\n    event ChangeGuitarOwnership(uint indexed _serial, address indexed previousOwner, address indexed newOwner, uint txTime);\n    event ChangeGuitarPrice(uint indexed _serial, uint indexed _newPrice, uint _previousPrice);\n    event SaleStatus(uint indexed _serial, address indexed Owner, bool _status);\n    event NewFactory(address indexed account);\n    event ClosedFactory(address indexed account);\n    event subDealear(address indexed account);\n    event unsubDealer(address indexed account);\n\n    /**\n    * @dev The role FACTORY is the only one who can made guitars!!!!!!! (scream on guitars  with metal voice)\n    */\n    modifier onlyFactories() {\n        // only a factory with must call this function\n        require(hasRole(FACTORY, msg.sender), \"Caller is not a manufacturer\");\n        _;\n    }\n\n    /**\n    * @dev Modifier use to allow change price of an instrument and get it back to sale market\n    */\n    modifier onlyGuitarOwner(uint _serial) {\n        // only a the owner f the instrument\n        require(ownerOf(_serial) == msg.sender, \"Caller is does not own this guitar\");\n        _;\n    }\n    \n    /**\n    * @dev Just checks the existence of a guitar\n    */\n\n    modifier ifGuitarExists (uint _serial){\n        require(_serial > 0 && _serial <= totalSupply(), \"Guitar does not exist!\");\n        _;\n    } \n\n        \n    /**\n    * @dev Just checks the existence of a guitar\n    */\n\n    modifier ifForSale (uint _serial){\n        require(_serial > 0 && _serial <= totalSupply(), \"Guitar does not exist!\");\n        require(guitars[_serial-1].forSale, \"Not for sale in this moment!\");\n        _;\n    } \n\n    \n    /**\n     * @dev Initializes the contract by setting a `brandName` and a `brandSymbol` to the token collection.\n     * Its set the 'brandOwner' to the owner contract which bay default it's  the one who instantiated it.\n     * The hierachy in the company it's defined by the owner who can grant any role, the factories can\n     * grant or revoke the dealer role using granRole/revokeRol functions from AccesControl\n     */\n    constructor(string memory brandName, string memory brandSymbol)\n     ERC721(brandName, brandSymbol) public\n      {\n        brandOwner = owner(); \n        _setupRole(DEFAULT_ADMIN_ROLE, brandOwner);\n        _setupRole(FACTORY, brandOwner);\n        _setRoleAdmin(DEALER, FACTORY);  \n    }\n\n    /**\n     * @dev It overrides AccesControl.sol's funtion to emit the proper event\n     */\n    function grantRole(bytes32 role, address account) public override{\n        AccessControl.grantRole(role,account);\n        if(FACTORY == role){emit NewFactory(account);}\n        if(DEALER == role){emit subDealear(account);}\n    }\n\n        /**\n     * @dev It overrides AccesControl.sol's funtion to emit the proper event\n     */\n    function revokeRole(bytes32 role, address account) public override{\n        AccessControl.revokeRole(role,account);\n        if(FACTORY == role){emit ClosedFactory(account);}\n        if(DEALER == role){emit unsubDealer(account);}\n    }\n\n    /**\n    * @dev Just for testing purposes\n    * @return All the values of Guitar struct as a single string, separating the member of the strub by comma\n    */\n    function guitarData(uint _serial) public view ifGuitarExists(_serial) returns (string memory, uint, uint, address, bool, bool) {\n        _serial = _serial-1; // the nth guitar is store in the index n-1 of guitars array\n        return (guitars[_serial].model, guitars[_serial].price, guitars[_serial].serial, guitars[_serial].factory, guitars[_serial].isNew, guitars[_serial].forSale);\n    }\n\n    /**\n     * @dev It creates a structure that accounts for a guitar construction\n     * this structure it's related to the token set in the contructor function\n     */\n    function mintGuitar(string memory _model, uint _price) public onlyFactories {\n        // to prevent overflow and set a correct value for sale\n        require( _price < _price+1 && _price > 0);\n        // the guitar is mint and its info added to array of guitar created\n        uint _serial = totalSupply().add(1);\n        _safeMint(msg.sender, _serial);\n        Guitar[] storage gtrs = guitars;\n        gtrs.push(Guitar(_model, _price, _serial, msg.sender, true, true));\n        emit NewGuitarMinted(_serial);\n        // sets the ownership of the instrument to the factory\n        emit ChangeGuitarOwnership(_serial, address(0x0), msg.sender, now);\n    }\n\n    /**\n    * @dev The guitar owner can change the price of the instrument\n    */\n\n    function changePrice(uint _serial, uint _newPrice) public ifGuitarExists(_serial) onlyGuitarOwner(_serial){\n        // to prevent overflow and set a correct value for sale\n        require( _newPrice < _newPrice+1 && _newPrice > 0);\n        require(guitars[_serial.sub(1)].price != _newPrice, \"Price has not changed\");\n        uint _previousPrice =  guitars[_serial.sub(1)].price;\n        guitars[_serial.sub(1)].price = _newPrice;\n        emit ChangeGuitarPrice(_serial, _newPrice, _previousPrice);\n    }\n\n    /**\n    * @dev The guitar owner can change the price of the instrument\n    */\n\n    function changeSaleStatus(uint _serial) public ifGuitarExists(_serial) onlyGuitarOwner(_serial){\n        uint n =  _serial.sub(1);\n        guitars[n].forSale = !(guitars[n].forSale);\n        emit SaleStatus(_serial, msg.sender, guitars[n].forSale);\n    }\n\n}",
  "sourcePath": "/home/chuqui/Fernando/consensys_bootcamp_project/contracts/GuitarBrand.sol",
  "compiler": {
    "name": "solc",
    "version": "0.6.2+commit.bacdbe57.Emscripten.clang"
  },
  "schemaVersion": "3.3.2",
  "updatedAt": "2020-11-28T19:19:16.194Z",
  "networkType": "ethereum",
  "devdoc": {
    "author": "Fernando Garduo Galaviz",
    "details": "Non-Fungible Token built on ERC721 standard, to create and transfer guitar ownership, the contract represent the NFT for a guitar brand,  defines who can create more guitars and set guitar dealers via role assignation. It also works as registry of the guitars made by this brand.",
    "methods": {
      "approve(address,uint256)": {
        "details": "See {IERC721-approve}."
      },
      "balanceOf(address)": {
        "details": "See {IERC721-balanceOf}."
      },
      "baseURI()": {
        "details": "Returns the base URI set via {_setBaseURI}. This will be automatically added as a prefix in {tokenURI} to each token's URI, or to the token ID if no specific URI is set for that token ID."
      },
      "changePrice(uint256,uint256)": {
        "details": "The guitar owner can change the price of the instrument"
      },
      "changeSaleStatus(uint256)": {
        "details": "The guitar owner can change the price of the instrument"
      },
      "constructor": {
        "details": "Initializes the contract by setting a `brandName` and a `brandSymbol` to the token collection. Its set the 'brandOwner' to the owner contract which bay default it's  the one who instantiated it. The hierachy in the company it's defined by the owner who can grant any role, the factories can grant or revoke the dealer role using granRole/revokeRol functions from AccesControl"
      },
      "getApproved(uint256)": {
        "details": "See {IERC721-getApproved}."
      },
      "getRoleAdmin(bytes32)": {
        "details": "Returns the admin role that controls `role`. See {grantRole} and {revokeRole}.     * To change a role's admin, use {_setRoleAdmin}."
      },
      "getRoleMember(bytes32,uint256)": {
        "details": "Returns one of the accounts that have `role`. `index` must be a value between 0 and {getRoleMemberCount}, non-inclusive.     * Role bearers are not sorted in any particular way, and their ordering may change at any point.     * WARNING: When using {getRoleMember} and {getRoleMemberCount}, make sure you perform all queries on the same block. See the following https://forum.openzeppelin.com/t/iterating-over-elements-on-enumerableset-in-openzeppelin-contracts/2296[forum post] for more information."
      },
      "getRoleMemberCount(bytes32)": {
        "details": "Returns the number of accounts that have `role`. Can be used together with {getRoleMember} to enumerate all bearers of a role."
      },
      "grantRole(bytes32,address)": {
        "details": "It overrides AccesControl.sol's funtion to emit the proper event"
      },
      "guitarData(uint256)": {
        "details": "Just for testing purposes",
        "returns": {
          "_0": "All the values of Guitar struct as a single string, separating the member of the strub by comma"
        }
      },
      "hasRole(bytes32,address)": {
        "details": "Returns `true` if `account` has been granted `role`."
      },
      "isApprovedForAll(address,address)": {
        "details": "See {IERC721-isApprovedForAll}."
      },
      "mintGuitar(string,uint256)": {
        "details": "It creates a structure that accounts for a guitar construction this structure it's related to the token set in the contructor function"
      },
      "name()": {
        "details": "See {IERC721Metadata-name}."
      },
      "owner()": {
        "details": "Returns the address of the current owner."
      },
      "ownerOf(uint256)": {
        "details": "See {IERC721-ownerOf}."
      },
      "renounceOwnership()": {
        "details": "Leaves the contract without owner. It will not be possible to call `onlyOwner` functions anymore. Can only be called by the current owner.     * NOTE: Renouncing ownership will leave the contract without an owner, thereby removing any functionality that is only available to the owner."
      },
      "renounceRole(bytes32,address)": {
        "details": "Revokes `role` from the calling account.     * Roles are often managed via {grantRole} and {revokeRole}: this function's purpose is to provide a mechanism for accounts to lose their privileges if they are compromised (such as when a trusted device is misplaced).     * If the calling account had been granted `role`, emits a {RoleRevoked} event.     * Requirements:     * - the caller must be `account`."
      },
      "revokeRole(bytes32,address)": {
        "details": "It overrides AccesControl.sol's funtion to emit the proper event"
      },
      "safeTransferFrom(address,address,uint256)": {
        "details": "See {IERC721-safeTransferFrom}."
      },
      "safeTransferFrom(address,address,uint256,bytes)": {
        "details": "See {IERC721-safeTransferFrom}."
      },
      "setApprovalForAll(address,bool)": {
        "details": "See {IERC721-setApprovalForAll}."
      },
      "supportsInterface(bytes4)": {
        "details": "See {IERC165-supportsInterface}.     * Time complexity O(1), guaranteed to always use less than 30 000 gas."
      },
      "symbol()": {
        "details": "See {IERC721Metadata-symbol}."
      },
      "tokenByIndex(uint256)": {
        "details": "See {IERC721Enumerable-tokenByIndex}."
      },
      "tokenOfOwnerByIndex(address,uint256)": {
        "details": "See {IERC721Enumerable-tokenOfOwnerByIndex}."
      },
      "tokenURI(uint256)": {
        "details": "See {IERC721Metadata-tokenURI}."
      },
      "totalSupply()": {
        "details": "See {IERC721Enumerable-totalSupply}."
      },
      "transferFrom(address,address,uint256)": {
        "details": "See {IERC721-transferFrom}."
      },
      "transferOwnership(address)": {
        "details": "Transfers ownership of the contract to a new account (`newOwner`). Can only be called by the current owner."
      }
    },
    "title": "GuitarBrand "
  },
  "userdoc": {
    "methods": {}
  }
}