{
  "contractName": "GuitarMarketplace",
  "abi": [
    {
      "inputs": [],
      "stateMutability": "nonpayable",
      "type": "constructor"
    },
    {
      "anonymous": false,
      "inputs": [
        {
          "indexed": true,
          "internalType": "address",
          "name": "addr",
          "type": "address"
        }
      ],
      "name": "BrandOwnerAdded",
      "type": "event"
    },
    {
      "anonymous": false,
      "inputs": [
        {
          "indexed": true,
          "internalType": "address",
          "name": "addr",
          "type": "address"
        }
      ],
      "name": "BrandOwnerRemoved",
      "type": "event"
    },
    {
      "anonymous": false,
      "inputs": [
        {
          "indexed": true,
          "internalType": "string",
          "name": "name",
          "type": "string"
        }
      ],
      "name": "GuitarBrandSignedDown",
      "type": "event"
    },
    {
      "anonymous": false,
      "inputs": [
        {
          "indexed": true,
          "internalType": "string",
          "name": "name",
          "type": "string"
        }
      ],
      "name": "GuitarBrandSignedUp",
      "type": "event"
    },
    {
      "anonymous": false,
      "inputs": [
        {
          "indexed": true,
          "internalType": "address",
          "name": "previousOwner",
          "type": "address"
        },
        {
          "indexed": true,
          "internalType": "address",
          "name": "newOwner",
          "type": "address"
        }
      ],
      "name": "OwnershipTransferred",
      "type": "event"
    },
    {
      "anonymous": false,
      "inputs": [
        {
          "indexed": true,
          "internalType": "bytes32",
          "name": "role",
          "type": "bytes32"
        },
        {
          "indexed": true,
          "internalType": "bytes32",
          "name": "previousAdminRole",
          "type": "bytes32"
        },
        {
          "indexed": true,
          "internalType": "bytes32",
          "name": "newAdminRole",
          "type": "bytes32"
        }
      ],
      "name": "RoleAdminChanged",
      "type": "event"
    },
    {
      "anonymous": false,
      "inputs": [
        {
          "indexed": true,
          "internalType": "bytes32",
          "name": "role",
          "type": "bytes32"
        },
        {
          "indexed": true,
          "internalType": "address",
          "name": "account",
          "type": "address"
        },
        {
          "indexed": true,
          "internalType": "address",
          "name": "sender",
          "type": "address"
        }
      ],
      "name": "RoleGranted",
      "type": "event"
    },
    {
      "anonymous": false,
      "inputs": [
        {
          "indexed": true,
          "internalType": "bytes32",
          "name": "role",
          "type": "bytes32"
        },
        {
          "indexed": true,
          "internalType": "address",
          "name": "account",
          "type": "address"
        },
        {
          "indexed": true,
          "internalType": "address",
          "name": "sender",
          "type": "address"
        }
      ],
      "name": "RoleRevoked",
      "type": "event"
    },
    {
      "inputs": [],
      "name": "ADMIN",
      "outputs": [
        {
          "internalType": "bytes32",
          "name": "",
          "type": "bytes32"
        }
      ],
      "stateMutability": "view",
      "type": "function"
    },
    {
      "inputs": [],
      "name": "DEFAULT_ADMIN_ROLE",
      "outputs": [
        {
          "internalType": "bytes32",
          "name": "",
          "type": "bytes32"
        }
      ],
      "stateMutability": "view",
      "type": "function"
    },
    {
      "inputs": [
        {
          "internalType": "string",
          "name": "",
          "type": "string"
        }
      ],
      "name": "brandExistence",
      "outputs": [
        {
          "internalType": "bool",
          "name": "",
          "type": "bool"
        }
      ],
      "stateMutability": "view",
      "type": "function"
    },
    {
      "inputs": [
        {
          "internalType": "address",
          "name": "",
          "type": "address"
        }
      ],
      "name": "brandOwners",
      "outputs": [
        {
          "internalType": "bool",
          "name": "",
          "type": "bool"
        }
      ],
      "stateMutability": "view",
      "type": "function"
    },
    {
      "inputs": [
        {
          "internalType": "string",
          "name": "",
          "type": "string"
        }
      ],
      "name": "brands",
      "outputs": [
        {
          "internalType": "contract GuitarBrand",
          "name": "",
          "type": "address"
        }
      ],
      "stateMutability": "view",
      "type": "function"
    },
    {
      "inputs": [
        {
          "internalType": "bytes32",
          "name": "role",
          "type": "bytes32"
        }
      ],
      "name": "getRoleAdmin",
      "outputs": [
        {
          "internalType": "bytes32",
          "name": "",
          "type": "bytes32"
        }
      ],
      "stateMutability": "view",
      "type": "function"
    },
    {
      "inputs": [
        {
          "internalType": "bytes32",
          "name": "role",
          "type": "bytes32"
        },
        {
          "internalType": "uint256",
          "name": "index",
          "type": "uint256"
        }
      ],
      "name": "getRoleMember",
      "outputs": [
        {
          "internalType": "address",
          "name": "",
          "type": "address"
        }
      ],
      "stateMutability": "view",
      "type": "function"
    },
    {
      "inputs": [
        {
          "internalType": "bytes32",
          "name": "role",
          "type": "bytes32"
        }
      ],
      "name": "getRoleMemberCount",
      "outputs": [
        {
          "internalType": "uint256",
          "name": "",
          "type": "uint256"
        }
      ],
      "stateMutability": "view",
      "type": "function"
    },
    {
      "inputs": [
        {
          "internalType": "bytes32",
          "name": "role",
          "type": "bytes32"
        },
        {
          "internalType": "address",
          "name": "account",
          "type": "address"
        }
      ],
      "name": "grantRole",
      "outputs": [],
      "stateMutability": "nonpayable",
      "type": "function"
    },
    {
      "inputs": [
        {
          "internalType": "bytes32",
          "name": "role",
          "type": "bytes32"
        },
        {
          "internalType": "address",
          "name": "account",
          "type": "address"
        }
      ],
      "name": "hasRole",
      "outputs": [
        {
          "internalType": "bool",
          "name": "",
          "type": "bool"
        }
      ],
      "stateMutability": "view",
      "type": "function"
    },
    {
      "inputs": [],
      "name": "owner",
      "outputs": [
        {
          "internalType": "address",
          "name": "",
          "type": "address"
        }
      ],
      "stateMutability": "view",
      "type": "function"
    },
    {
      "inputs": [],
      "name": "renounceOwnership",
      "outputs": [],
      "stateMutability": "nonpayable",
      "type": "function"
    },
    {
      "inputs": [
        {
          "internalType": "bytes32",
          "name": "role",
          "type": "bytes32"
        },
        {
          "internalType": "address",
          "name": "account",
          "type": "address"
        }
      ],
      "name": "renounceRole",
      "outputs": [],
      "stateMutability": "nonpayable",
      "type": "function"
    },
    {
      "inputs": [
        {
          "internalType": "bytes32",
          "name": "role",
          "type": "bytes32"
        },
        {
          "internalType": "address",
          "name": "account",
          "type": "address"
        }
      ],
      "name": "revokeRole",
      "outputs": [],
      "stateMutability": "nonpayable",
      "type": "function"
    },
    {
      "inputs": [
        {
          "internalType": "address",
          "name": "newOwner",
          "type": "address"
        }
      ],
      "name": "transferOwnership",
      "outputs": [],
      "stateMutability": "nonpayable",
      "type": "function"
    },
    {
      "inputs": [
        {
          "internalType": "address",
          "name": "_brandAddress",
          "type": "address"
        }
      ],
      "name": "brandSignUp",
      "outputs": [
        {
          "internalType": "bool",
          "name": "",
          "type": "bool"
        }
      ],
      "stateMutability": "nonpayable",
      "type": "function"
    }
  ],
  "bytecode": "0x60806040523480156200001157600080fd5b506000620000246200020160201b60201c565b9050806000806101000a81548173ffffffffffffffffffffffffffffffffffffffff021916908373ffffffffffffffffffffffffffffffffffffffff1602179055508073ffffffffffffffffffffffffffffffffffffffff16600073ffffffffffffffffffffffffffffffffffffffff167f8be0079c531659141344cd1fd0a4f28419497f9722a3daafe3b4186f6b6457e060405160405180910390a350600160026000620000d86200020960201b60201c565b73ffffffffffffffffffffffffffffffffffffffff1673ffffffffffffffffffffffffffffffffffffffff16815260200190815260200160002060006101000a81548160ff0219169083151502179055506200017f60405180807f41444d494e00000000000000000000000000000000000000000000000000000081525060050190506040518091039020620001736200020960201b60201c565b6200023260201b60201c565b620001fb60405180807f41444d494e0000000000000000000000000000000000000000000000000000008152506005019050604051809103902060405180807f41444d494e000000000000000000000000000000000000000000000000000000815250600501905060405180910390206200024860201b60201c565b62000425565b600033905090565b60008060009054906101000a900473ffffffffffffffffffffffffffffffffffffffff16905090565b620002448282620002ac60201b60201c565b5050565b806001600084815260200190815260200160002060020154837fbd79b86ffe0ab8e8776151514217cd7cacd52c909f66475c3af44e129f0b00ff60405160405180910390a48060016000848152602001908152602001600020600201819055505050565b620002db81600160008581526020019081526020016000206000016200035060201b620014c31790919060201c565b156200034c57620002f16200020160201b60201c565b73ffffffffffffffffffffffffffffffffffffffff168173ffffffffffffffffffffffffffffffffffffffff16837f2f8788117e7eff1d82e926ec794901d17c78024a50270940304540a733656f0d60405160405180910390a45b5050565b600062000380836000018373ffffffffffffffffffffffffffffffffffffffff1660001b6200038860201b60201c565b905092915050565b60006200039c83836200040260201b60201c565b620003f7578260000182908060018154018082558091505060019003906000526020600020016000909190919091505582600001805490508360010160008481526020019081526020016000208190555060019050620003fc565b600090505b92915050565b600080836001016000848152602001908152602001600020541415905092915050565b6118b080620004356000396000f3fe608060405234801561001057600080fd5b50600436106101005760003560e01c806391d1485411610097578063d547741f11610066578063d547741f146104ea578063d604f81714610538578063e729c1de1461060b578063f2fde38b1461066757610100565b806391d14854146103c8578063a217fddf1461042e578063a90b861e1461044c578063ca15c873146104a857610100565b8063715018a6116100d3578063715018a6146102015780637b7d456f1461020b5780638da5cb5b146103065780639010d07c1461035057610100565b8063248a9ca3146101055780632a0acc6a146101475780632f2ff15d1461016557806336568abe146101b3575b600080fd5b6101316004803603602081101561011b57600080fd5b81019080803590602001909291905050506106ab565b6040518082815260200191505060405180910390f35b61014f6106cb565b6040518082815260200191505060405180910390f35b6101b16004803603604081101561017b57600080fd5b8101908080359060200190929190803573ffffffffffffffffffffffffffffffffffffffff169060200190929190505050610704565b005b6101ff600480360360408110156101c957600080fd5b8101908080359060200190929190803573ffffffffffffffffffffffffffffffffffffffff16906020019092919050505061078e565b005b610209610827565b005b6102c46004803603602081101561022157600080fd5b810190808035906020019064010000000081111561023e57600080fd5b82018360208201111561025057600080fd5b8035906020019184600183028401116401000000008311171561027257600080fd5b91908080601f016020809104026020016040519081016040528093929190818152602001838380828437600081840152601f19601f8201169050808301925050505050505091929192905050506109af565b604051808273ffffffffffffffffffffffffffffffffffffffff1673ffffffffffffffffffffffffffffffffffffffff16815260200191505060405180910390f35b61030e6109f8565b604051808273ffffffffffffffffffffffffffffffffffffffff1673ffffffffffffffffffffffffffffffffffffffff16815260200191505060405180910390f35b6103866004803603604081101561036657600080fd5b810190808035906020019092919080359060200190929190505050610a21565b604051808273ffffffffffffffffffffffffffffffffffffffff1673ffffffffffffffffffffffffffffffffffffffff16815260200191505060405180910390f35b610414600480360360408110156103de57600080fd5b8101908080359060200190929190803573ffffffffffffffffffffffffffffffffffffffff169060200190929190505050610a53565b604051808215151515815260200191505060405180910390f35b610436610a85565b6040518082815260200191505060405180910390f35b61048e6004803603602081101561046257600080fd5b81019080803573ffffffffffffffffffffffffffffffffffffffff169060200190929190505050610a8c565b604051808215151515815260200191505060405180910390f35b6104d4600480360360208110156104be57600080fd5b8101908080359060200190929190505050611020565b6040518082815260200191505060405180910390f35b6105366004803603604081101561050057600080fd5b8101908080359060200190929190803573ffffffffffffffffffffffffffffffffffffffff169060200190929190505050611047565b005b6105f16004803603602081101561054e57600080fd5b810190808035906020019064010000000081111561056b57600080fd5b82018360208201111561057d57600080fd5b8035906020019184600183028401116401000000008311171561059f57600080fd5b91908080601f016020809104026020016040519081016040528093929190818152602001838380828437600081840152601f19601f8201169050808301925050505050505091929192905050506110d1565b604051808215151515815260200191505060405180910390f35b61064d6004803603602081101561062157600080fd5b81019080803573ffffffffffffffffffffffffffffffffffffffff169060200190929190505050611107565b604051808215151515815260200191505060405180910390f35b6106a96004803603602081101561067d57600080fd5b81019080803573ffffffffffffffffffffffffffffffffffffffff169060200190929190505050611127565b005b600060016000838152602001908152602001600020600201549050919050565b60405180807f41444d494e0000000000000000000000000000000000000000000000000000008152506005019050604051809103902081565b61072b6001600084815260200190815260200160002060020154610726611334565b610a53565b610780576040517f08c379a000000000000000000000000000000000000000000000000000000000815260040180806020018281038252602f815260200180611755602f913960400191505060405180910390fd5b61078a828261133c565b5050565b610796611334565b73ffffffffffffffffffffffffffffffffffffffff168173ffffffffffffffffffffffffffffffffffffffff1614610819576040517f08c379a000000000000000000000000000000000000000000000000000000000815260040180806020018281038252602f81526020018061184c602f913960400191505060405180910390fd5b61082382826113d0565b5050565b61082f611334565b73ffffffffffffffffffffffffffffffffffffffff166000809054906101000a900473ffffffffffffffffffffffffffffffffffffffff1673ffffffffffffffffffffffffffffffffffffffff16146108f0576040517f08c379a00000000000000000000000000000000000000000000000000000000081526004018080602001828103825260208152602001807f4f776e61626c653a2063616c6c6572206973206e6f7420746865206f776e657281525060200191505060405180910390fd5b600073ffffffffffffffffffffffffffffffffffffffff166000809054906101000a900473ffffffffffffffffffffffffffffffffffffffff1673ffffffffffffffffffffffffffffffffffffffff167f8be0079c531659141344cd1fd0a4f28419497f9722a3daafe3b4186f6b6457e060405160405180910390a360008060006101000a81548173ffffffffffffffffffffffffffffffffffffffff021916908373ffffffffffffffffffffffffffffffffffffffff160217905550565b6004818051602081018201805184825260208301602085012081835280955050505050506000915054906101000a900473ffffffffffffffffffffffffffffffffffffffff1681565b60008060009054906101000a900473ffffffffffffffffffffffffffffffffffffffff16905090565b6000610a4b826001600086815260200190815260200160002060000161146490919063ffffffff16565b905092915050565b6000610a7d826001600086815260200190815260200160002060000161147e90919063ffffffff16565b905092915050565b6000801b81565b6000610acd60405180807f41444d494e0000000000000000000000000000000000000000000000000000008152506005019050604051809103902033610a53565b610b22576040517f08c379a00000000000000000000000000000000000000000000000000000000081526004018080602001828103825260428152602001806117aa6042913960600191505060405180910390fd5b60008290503373ffffffffffffffffffffffffffffffffffffffff168173ffffffffffffffffffffffffffffffffffffffff16633ec6952a6040518163ffffffff1660e01b815260040160206040518083038186803b158015610b8457600080fd5b505afa158015610b98573d6000803e3d6000fd5b505050506040513d6020811015610bae57600080fd5b810190808051906020019092919050505073ffffffffffffffffffffffffffffffffffffffff1614610c2b576040517f08c379a000000000000000000000000000000000000000000000000000000000815260040180806020018281038252603081526020018061181c6030913960400191505060405180910390fd5b60608173ffffffffffffffffffffffffffffffffffffffff166306fdde036040518163ffffffff1660e01b815260040160006040518083038186803b158015610c7357600080fd5b505afa158015610c87573d6000803e3d6000fd5b505050506040513d6000823e3d601f19601f820116820180604052506020811015610cb157600080fd5b8101908080516040519392919084640100000000821115610cd157600080fd5b83820191506020820185811115610ce757600080fd5b8251866001820283011164010000000082111715610d0457600080fd5b8083526020830192505050908051906020019080838360005b83811015610d38578082015181840152602081019050610d1d565b50505050905090810190601f168015610d655780820380516001836020036101000a031916815260200191505b506040525050509050600115156003826040518082805190602001908083835b60208310610da85780518252602082019150602081019050602083039250610d85565b6001836020036101000a038019825116818451168082178552505050505050905001915050908152602001604051809103902060009054906101000a900460ff16151514610e5e576040517f08c379a00000000000000000000000000000000000000000000000000000000081526004018080602001828103825260208152602001807f54686174206272616e6420697320616c7265616479207265676973746572656481525060200191505060405180910390fd5b816004826040518082805190602001908083835b60208310610e955780518252602082019150602081019050602083039250610e72565b6001836020036101000a038019825116818451168082178552505050505050905001915050908152602001604051809103902060006101000a81548173ffffffffffffffffffffffffffffffffffffffff021916908373ffffffffffffffffffffffffffffffffffffffff16021790555060016003826040518082805190602001908083835b60208310610f3e5780518252602082019150602081019050602083039250610f1b565b6001836020036101000a038019825116818451168082178552505050505050905001915050908152602001604051809103902060006101000a81548160ff021916908315150217905550806040518082805190602001908083835b60208310610fbc5780518252602082019150602081019050602083039250610f99565b6001836020036101000a03801982511681845116808217855250505050505090500191505060405180910390207f31bb68aa06b259cf86fb3dad8ea14f45f04a5daf169d2a7e5c407759e4bafc2260405160405180910390a2600192505050919050565b6000611040600160008481526020019081526020016000206000016114ae565b9050919050565b61106e6001600084815260200190815260200160002060020154611069611334565b610a53565b6110c3576040517f08c379a00000000000000000000000000000000000000000000000000000000081526004018080602001828103825260308152602001806117ec6030913960400191505060405180910390fd5b6110cd82826113d0565b5050565b6003818051602081018201805184825260208301602085012081835280955050505050506000915054906101000a900460ff1681565b60026020528060005260406000206000915054906101000a900460ff1681565b61112f611334565b73ffffffffffffffffffffffffffffffffffffffff166000809054906101000a900473ffffffffffffffffffffffffffffffffffffffff1673ffffffffffffffffffffffffffffffffffffffff16146111f0576040517f08c379a00000000000000000000000000000000000000000000000000000000081526004018080602001828103825260208152602001807f4f776e61626c653a2063616c6c6572206973206e6f7420746865206f776e657281525060200191505060405180910390fd5b600073ffffffffffffffffffffffffffffffffffffffff168173ffffffffffffffffffffffffffffffffffffffff161415611276576040517f08c379a00000000000000000000000000000000000000000000000000000000081526004018080602001828103825260268152602001806117846026913960400191505060405180910390fd5b8073ffffffffffffffffffffffffffffffffffffffff166000809054906101000a900473ffffffffffffffffffffffffffffffffffffffff1673ffffffffffffffffffffffffffffffffffffffff167f8be0079c531659141344cd1fd0a4f28419497f9722a3daafe3b4186f6b6457e060405160405180910390a3806000806101000a81548173ffffffffffffffffffffffffffffffffffffffff021916908373ffffffffffffffffffffffffffffffffffffffff16021790555050565b600033905090565b61136481600160008581526020019081526020016000206000016114c390919063ffffffff16565b156113cc57611371611334565b73ffffffffffffffffffffffffffffffffffffffff168173ffffffffffffffffffffffffffffffffffffffff16837f2f8788117e7eff1d82e926ec794901d17c78024a50270940304540a733656f0d60405160405180910390a45b5050565b6113f881600160008581526020019081526020016000206000016114f390919063ffffffff16565b1561146057611405611334565b73ffffffffffffffffffffffffffffffffffffffff168173ffffffffffffffffffffffffffffffffffffffff16837ff6391f5c32d9c69d2a47ea670b442974b53935d1edc7fd64eb21e047a839171b60405160405180910390a45b5050565b60006114738360000183611523565b60001c905092915050565b60006114a6836000018373ffffffffffffffffffffffffffffffffffffffff1660001b6115a6565b905092915050565b60006114bc826000016115c9565b9050919050565b60006114eb836000018373ffffffffffffffffffffffffffffffffffffffff1660001b6115da565b905092915050565b600061151b836000018373ffffffffffffffffffffffffffffffffffffffff1660001b61164a565b905092915050565b600081836000018054905011611584576040517f08c379a00000000000000000000000000000000000000000000000000000000081526004018080602001828103825260228152602001806117336022913960400191505060405180910390fd5b82600001828154811061159357fe5b9060005260206000200154905092915050565b600080836001016000848152602001908152602001600020541415905092915050565b600081600001805490509050919050565b60006115e683836115a6565b61163f578260000182908060018154018082558091505060019003906000526020600020016000909190919091505582600001805490508360010160008481526020019081526020016000208190555060019050611644565b600090505b92915050565b60008083600101600084815260200190815260200160002054905060008114611726576000600182039050600060018660000180549050039050600086600001828154811061169557fe5b90600052602060002001549050808760000184815481106116b257fe5b90600052602060002001819055506001830187600101600083815260200190815260200160002081905550866000018054806116ea57fe5b6001900381819060005260206000200160009055905586600101600087815260200190815260200160002060009055600194505050505061172c565b60009150505b9291505056fe456e756d657261626c655365743a20696e646578206f7574206f6620626f756e6473416363657373436f6e74726f6c3a2073656e646572206d75737420626520616e2061646d696e20746f206772616e744f776e61626c653a206e6577206f776e657220697320746865207a65726f2061646472657373416464726573206973206e6f74206265656e206772616e746564207065726d697373696f6e20746f207369676e20757020666f7220677569746172206272616e6473416363657373436f6e74726f6c3a2073656e646572206d75737420626520616e2061646d696e20746f207265766f6b654f6e6c79206272616e64206f776e657220697320616c6c6f77656420746f207369676e20757020686973206272616e64416363657373436f6e74726f6c3a2063616e206f6e6c792072656e6f756e636520726f6c657320666f722073656c66a2646970667358221220cb4e63889631b9ff2322333850f77af4a57c802eaa1f6c6f77f72f83cf5747fc64736f6c63430006020033",
  "source": "pragma solidity ^0.6.2;\n\nimport \"@openzeppelin/contracts/access/Ownable.sol\";\nimport \"@openzeppelin/contracts/access/AccessControl.sol\";\nimport \"./GuitarBrand.sol\";\n\n/**\n * @title GuitarMarketplace\n * @dev This contract represents a market for guitars brands any brand's owner\n * can sign in his brand after market's aprroval, granted for any other brand owner.\n * This behaviour could be improved transforming the marketplace into a multi-signed contract.\n * @author Fernando Garduo\n */\n\ncontract GuitarMarketplace is Ownable, AccessControl{\n\n    mapping (address =>  bool) public brandOwners;\n    /// @dev Just check if the brand has already been registered\n    mapping (string =>  bool) public brandExistence;\n    mapping (string =>  GuitarBrand) public brands;\n\n    // Roles' encoding\n    bytes32 public constant ADMIN = keccak256(\"ADMIN\"); \n\n\n    /**\n    * Events\n    */\n    event BrandOwnerAdded(address indexed addr);\n    event BrandOwnerRemoved(address indexed addr);\n    event GuitarBrandSignedUp(string indexed name);\n    event GuitarBrandSignedDown(string indexed name);\n\n    /**\n     * @dev The contract's deployer becomes an 'ADMIN'\n     * only the accounts with this rol can sing up or down a guitar brand into the marketplace.\n     * An admin can either grant or revoke this role using granRole/revokeRol functions from AccesControl\n     *\n     */\n    constructor() public {\n        brandOwners[owner()] = true;\n        _setupRole(ADMIN, owner());\n        _setRoleAdmin(ADMIN, ADMIN);  \n    }\n\n    /**\n     * @dev It creates a structure that accounts for a guitar construction\n     * this structure it's related to the token set in the contructor function\n     */\n    function brandSignUp(address _brandAddress) public returns(bool) {\n        // only a factory with factory must call this function\n        require(hasRole(ADMIN, msg.sender), \"Addres is not been granted permission to sign up for guitar brands\");\n        GuitarBrand brand = GuitarBrand(_brandAddress);\n        require(brand.brandOwner() == msg.sender, \"Only brand owner is allowed to sign up his brand\");\n        string memory brandName = brand.name();\n        require(brandExistence[brandName] == true, \"That brand is already registered\");\n        brands[brandName] = brand;\n        brandExistence[brandName] = true;\n        emit GuitarBrandSignedUp(brandName);\n        return true;\n    }\n\n\n}",
  "sourcePath": "/home/chuqui/Fernando/consensys_bootcamp_project/contracts/GuitarMarketplace.sol",
  "compiler": {
    "name": "solc",
    "version": "0.6.2+commit.bacdbe57.Emscripten.clang"
  },
  "schemaVersion": "3.3.2",
  "updatedAt": "2020-11-28T19:19:12.175Z",
  "devdoc": {
    "author": "Fernando Garduo",
    "details": "This contract represents a market for guitars brands any brand's owner can sign in his brand after market's aprroval, granted for any other brand owner. This behaviour could be improved transforming the marketplace into a multi-signed contract.",
    "methods": {
      "brandSignUp(address)": {
        "details": "It creates a structure that accounts for a guitar construction this structure it's related to the token set in the contructor function"
      },
      "constructor": {
        "details": "The contract's deployer becomes an 'ADMIN' only the accounts with this rol can sing up or down a guitar brand into the marketplace. An admin can either grant or revoke this role using granRole/revokeRol functions from AccesControl     "
      },
      "getRoleAdmin(bytes32)": {
        "details": "Returns the admin role that controls `role`. See {grantRole} and {revokeRole}.     * To change a role's admin, use {_setRoleAdmin}."
      },
      "getRoleMember(bytes32,uint256)": {
        "details": "Returns one of the accounts that have `role`. `index` must be a value between 0 and {getRoleMemberCount}, non-inclusive.     * Role bearers are not sorted in any particular way, and their ordering may change at any point.     * WARNING: When using {getRoleMember} and {getRoleMemberCount}, make sure you perform all queries on the same block. See the following https://forum.openzeppelin.com/t/iterating-over-elements-on-enumerableset-in-openzeppelin-contracts/2296[forum post] for more information."
      },
      "getRoleMemberCount(bytes32)": {
        "details": "Returns the number of accounts that have `role`. Can be used together with {getRoleMember} to enumerate all bearers of a role."
      },
      "grantRole(bytes32,address)": {
        "details": "Grants `role` to `account`.     * If `account` had not been already granted `role`, emits a {RoleGranted} event.     * Requirements:     * - the caller must have ``role``'s admin role."
      },
      "hasRole(bytes32,address)": {
        "details": "Returns `true` if `account` has been granted `role`."
      },
      "owner()": {
        "details": "Returns the address of the current owner."
      },
      "renounceOwnership()": {
        "details": "Leaves the contract without owner. It will not be possible to call `onlyOwner` functions anymore. Can only be called by the current owner.     * NOTE: Renouncing ownership will leave the contract without an owner, thereby removing any functionality that is only available to the owner."
      },
      "renounceRole(bytes32,address)": {
        "details": "Revokes `role` from the calling account.     * Roles are often managed via {grantRole} and {revokeRole}: this function's purpose is to provide a mechanism for accounts to lose their privileges if they are compromised (such as when a trusted device is misplaced).     * If the calling account had been granted `role`, emits a {RoleRevoked} event.     * Requirements:     * - the caller must be `account`."
      },
      "revokeRole(bytes32,address)": {
        "details": "Revokes `role` from `account`.     * If `account` had been granted `role`, emits a {RoleRevoked} event.     * Requirements:     * - the caller must have ``role``'s admin role."
      },
      "transferOwnership(address)": {
        "details": "Transfers ownership of the contract to a new account (`newOwner`). Can only be called by the current owner."
      }
    },
    "title": "GuitarMarketplace"
  },
  "userdoc": {
    "methods": {}
  }
}